{
  "contractName": "KittyContract",
  "abi": [
    {
      "anonymous": false,
      "inputs": [
        {
          "indexed": true,
          "internalType": "address",
          "name": "owner",
          "type": "address"
        },
        {
          "indexed": true,
          "internalType": "address",
          "name": "approved",
          "type": "address"
        },
        {
          "indexed": true,
          "internalType": "uint256",
          "name": "tokenId",
          "type": "uint256"
        }
      ],
      "name": "Approval",
      "type": "event"
    },
    {
      "anonymous": false,
      "inputs": [
        {
          "indexed": true,
          "internalType": "address",
          "name": "owner",
          "type": "address"
        },
        {
          "indexed": true,
          "internalType": "address",
          "name": "operator",
          "type": "address"
        },
        {
          "indexed": false,
          "internalType": "bool",
          "name": "approved",
          "type": "bool"
        }
      ],
      "name": "ApprovalForAll",
      "type": "event"
    },
    {
      "anonymous": false,
      "inputs": [
        {
          "indexed": false,
          "internalType": "address",
          "name": "owner",
          "type": "address"
        },
        {
          "indexed": false,
          "internalType": "uint256",
          "name": "kittenID",
          "type": "uint256"
        },
        {
          "indexed": false,
          "internalType": "uint256",
          "name": "mumID",
          "type": "uint256"
        },
        {
          "indexed": false,
          "internalType": "uint256",
          "name": "dadID",
          "type": "uint256"
        },
        {
          "indexed": false,
          "internalType": "uint256",
          "name": "genes",
          "type": "uint256"
        }
      ],
      "name": "Birth",
      "type": "event"
    },
    {
      "anonymous": false,
      "inputs": [
        {
          "indexed": true,
          "internalType": "address",
          "name": "previousOwner",
          "type": "address"
        },
        {
          "indexed": true,
          "internalType": "address",
          "name": "newOwner",
          "type": "address"
        }
      ],
      "name": "OwnershipTransferred",
      "type": "event"
    },
    {
      "anonymous": false,
      "inputs": [
        {
          "indexed": true,
          "internalType": "address",
          "name": "from",
          "type": "address"
        },
        {
          "indexed": true,
          "internalType": "address",
          "name": "to",
          "type": "address"
        },
        {
          "indexed": true,
          "internalType": "uint256",
          "name": "tokenId",
          "type": "uint256"
        }
      ],
      "name": "Transfer",
      "type": "event"
    },
    {
      "inputs": [],
      "name": "CREATION_LIMIT_GEN0",
      "outputs": [
        {
          "internalType": "uint256",
          "name": "",
          "type": "uint256"
        }
      ],
      "stateMutability": "view",
      "type": "function",
      "constant": true
    },
    {
      "inputs": [],
      "name": "gen0Counter",
      "outputs": [
        {
          "internalType": "uint256",
          "name": "",
          "type": "uint256"
        }
      ],
      "stateMutability": "view",
      "type": "function",
      "constant": true
    },
    {
      "inputs": [
        {
          "internalType": "uint256",
          "name": "",
          "type": "uint256"
        }
      ],
      "name": "kittyIndexToApproved",
      "outputs": [
        {
          "internalType": "address",
          "name": "",
          "type": "address"
        }
      ],
      "stateMutability": "view",
      "type": "function",
      "constant": true
    },
    {
      "inputs": [
        {
          "internalType": "uint256",
          "name": "",
          "type": "uint256"
        }
      ],
      "name": "kittyIndexToOwner",
      "outputs": [
        {
          "internalType": "address",
          "name": "",
          "type": "address"
        }
      ],
      "stateMutability": "view",
      "type": "function",
      "constant": true
    },
    {
      "inputs": [],
      "name": "name",
      "outputs": [
        {
          "internalType": "string",
          "name": "",
          "type": "string"
        }
      ],
      "stateMutability": "view",
      "type": "function",
      "constant": true
    },
    {
      "inputs": [],
      "name": "owner",
      "outputs": [
        {
          "internalType": "address",
          "name": "",
          "type": "address"
        }
      ],
      "stateMutability": "view",
      "type": "function",
      "constant": true
    },
    {
      "inputs": [],
      "name": "renounceOwnership",
      "outputs": [],
      "stateMutability": "nonpayable",
      "type": "function"
    },
    {
      "inputs": [],
      "name": "symbol",
      "outputs": [
        {
          "internalType": "string",
          "name": "",
          "type": "string"
        }
      ],
      "stateMutability": "view",
      "type": "function",
      "constant": true
    },
    {
      "inputs": [
        {
          "internalType": "address",
          "name": "newOwner",
          "type": "address"
        }
      ],
      "name": "transferOwnership",
      "outputs": [],
      "stateMutability": "nonpayable",
      "type": "function"
    },
    {
      "inputs": [
        {
          "internalType": "uint256",
          "name": "_dadID",
          "type": "uint256"
        },
        {
          "internalType": "uint256",
          "name": "_mumID",
          "type": "uint256"
        }
      ],
      "name": "breed",
      "outputs": [
        {
          "internalType": "uint256",
          "name": "",
          "type": "uint256"
        }
      ],
      "stateMutability": "nonpayable",
      "type": "function"
    },
    {
      "inputs": [
        {
          "internalType": "bytes4",
          "name": "_interfaceId",
          "type": "bytes4"
        }
      ],
      "name": "supportsInterface",
      "outputs": [
        {
          "internalType": "bool",
          "name": "",
          "type": "bool"
        }
      ],
      "stateMutability": "view",
      "type": "function",
      "constant": true
    },
    {
      "inputs": [
        {
          "internalType": "address",
          "name": "_to",
          "type": "address"
        },
        {
          "internalType": "uint256",
          "name": "_tokenId",
          "type": "uint256"
        }
      ],
      "name": "approve",
      "outputs": [],
      "stateMutability": "nonpayable",
      "type": "function"
    },
    {
      "inputs": [
        {
          "internalType": "address",
          "name": "operator",
          "type": "address"
        },
        {
          "internalType": "bool",
          "name": "approved",
          "type": "bool"
        }
      ],
      "name": "setApprovalForAll",
      "outputs": [],
      "stateMutability": "nonpayable",
      "type": "function"
    },
    {
      "inputs": [
        {
          "internalType": "uint256",
          "name": "tokenId",
          "type": "uint256"
        }
      ],
      "name": "getApproved",
      "outputs": [
        {
          "internalType": "address",
          "name": "",
          "type": "address"
        }
      ],
      "stateMutability": "view",
      "type": "function",
      "constant": true
    },
    {
      "inputs": [
        {
          "internalType": "address",
          "name": "owner",
          "type": "address"
        },
        {
          "internalType": "address",
          "name": "operator",
          "type": "address"
        }
      ],
      "name": "isApprovedForAll",
      "outputs": [
        {
          "internalType": "bool",
          "name": "",
          "type": "bool"
        }
      ],
      "stateMutability": "view",
      "type": "function",
      "constant": true
    },
    {
      "inputs": [
        {
          "internalType": "uint256",
          "name": "_id",
          "type": "uint256"
        }
      ],
      "name": "getKitty",
      "outputs": [
        {
          "internalType": "uint256",
          "name": "genes",
          "type": "uint256"
        },
        {
          "internalType": "uint256",
          "name": "birthtime",
          "type": "uint256"
        },
        {
          "internalType": "uint256",
          "name": "mumID",
          "type": "uint256"
        },
        {
          "internalType": "uint256",
          "name": "dadID",
          "type": "uint256"
        },
        {
          "internalType": "uint256",
          "name": "generation",
          "type": "uint256"
        }
      ],
      "stateMutability": "view",
      "type": "function",
      "constant": true
    },
    {
      "inputs": [
        {
          "internalType": "uint256",
          "name": "_genes",
          "type": "uint256"
        }
      ],
      "name": "createKittyGen0",
      "outputs": [
        {
          "internalType": "uint256",
          "name": "",
          "type": "uint256"
        }
      ],
      "stateMutability": "nonpayable",
      "type": "function"
    },
    {
      "inputs": [
        {
          "internalType": "address",
          "name": "owner",
          "type": "address"
        }
      ],
      "name": "balanceOf",
      "outputs": [
        {
          "internalType": "uint256",
          "name": "balance",
          "type": "uint256"
        }
      ],
      "stateMutability": "view",
      "type": "function",
      "constant": true
    },
    {
      "inputs": [],
      "name": "totalSupply",
      "outputs": [
        {
          "internalType": "uint256",
          "name": "total",
          "type": "uint256"
        }
      ],
      "stateMutability": "view",
      "type": "function",
      "constant": true
    },
    {
      "inputs": [
        {
          "internalType": "uint256",
          "name": "_tokenId",
          "type": "uint256"
        }
      ],
      "name": "ownerOf",
      "outputs": [
        {
          "internalType": "address",
          "name": "owner",
          "type": "address"
        }
      ],
      "stateMutability": "view",
      "type": "function",
      "constant": true
    },
    {
      "inputs": [
        {
          "internalType": "address",
          "name": "_to",
          "type": "address"
        },
        {
          "internalType": "uint256",
          "name": "_tokenId",
          "type": "uint256"
        }
      ],
      "name": "transfer",
      "outputs": [],
      "stateMutability": "nonpayable",
      "type": "function"
    },
    {
      "inputs": [
        {
          "internalType": "address",
          "name": "_from",
          "type": "address"
        },
        {
          "internalType": "address",
          "name": "_to",
          "type": "address"
        },
        {
          "internalType": "uint256",
          "name": "_tokenId",
          "type": "uint256"
        }
      ],
      "name": "transferFrom",
      "outputs": [],
      "stateMutability": "nonpayable",
      "type": "function"
    },
    {
      "inputs": [
        {
          "internalType": "address",
          "name": "_from",
          "type": "address"
        },
        {
          "internalType": "address",
          "name": "_to",
          "type": "address"
        },
        {
          "internalType": "uint256",
          "name": "_tokenId",
          "type": "uint256"
        }
      ],
      "name": "safeTransferFrom",
      "outputs": [],
      "stateMutability": "nonpayable",
      "type": "function"
    },
    {
      "inputs": [
        {
          "internalType": "address",
          "name": "_from",
          "type": "address"
        },
        {
          "internalType": "address",
          "name": "_to",
          "type": "address"
        },
        {
          "internalType": "uint256",
          "name": "_tokenId",
          "type": "uint256"
        },
        {
          "internalType": "bytes",
          "name": "_data",
          "type": "bytes"
        }
      ],
      "name": "safeTransferFrom",
      "outputs": [],
      "stateMutability": "nonpayable",
      "type": "function"
    }
  ],
  "bytecode": "0x608060405234801561001057600080fd5b5061002d61002261003260201b60201c565b61003a60201b60201c565b6100fe565b600033905090565b60008060009054906101000a900473ffffffffffffffffffffffffffffffffffffffff169050816000806101000a81548173ffffffffffffffffffffffffffffffffffffffff021916908373ffffffffffffffffffffffffffffffffffffffff1602179055508173ffffffffffffffffffffffffffffffffffffffff168173ffffffffffffffffffffffffffffffffffffffff167f8be0079c531659141344cd1fd0a4f28419497f9722a3daafe3b4186f6b6457e060405160405180910390a35050565b612117806200010e6000396000f3fe608060405234801561001057600080fd5b50600436106101585760003560e01c806395d89b41116100c3578063d5a776ca1161007c578063d5a776ca146103c5578063d9ecad7b146103f5578063e985e9c514610425578063e98b7f4d14610455578063ef5e94aa14610489578063f2fde38b146104a757610158565b806395d89b4114610305578063a22cb46514610323578063a45f4bfc1461033f578063a9059cbb1461036f578063b48343301461038b578063b88d4fde146103a957610158565b806342842e0e1161011557806342842e0e14610231578063481af3d31461024d5780636352211e1461027d57806370a08231146102ad578063715018a6146102dd5780638da5cb5b146102e757610158565b806301ffc9a71461015d57806306fdde031461018d578063081812fc146101ab578063095ea7b3146101db57806318160ddd146101f757806323b872dd14610215575b600080fd5b6101776004803603810190610172919061187e565b6104c3565b6040516101849190611bb4565b60405180910390f35b610195610563565b6040516101a29190611bcf565b60405180910390f35b6101c560048036038101906101c091906118d0565b61059c565b6040516101d29190611afa565b60405180910390f35b6101f560048036038101906101f09190611842565b6105ea565b005b6101ff610666565b60405161020c9190611c71565b60405180910390f35b61022f600480360381019061022a919061173c565b610673565b005b61024b6004803603810190610246919061173c565b610698565b005b610267600480360381019061026291906118d0565b6106b8565b6040516102749190611afa565b60405180910390f35b610297600480360381019061029291906118d0565b6106eb565b6040516102a49190611afa565b60405180910390f35b6102c760048036038101906102c291906116d7565b610728565b6040516102d49190611c71565b60405180910390f35b6102e5610771565b005b6102ef610785565b6040516102fc9190611afa565b60405180910390f35b61030d6107ae565b60405161031a9190611bcf565b60405180910390f35b61033d60048036038101906103389190611806565b6107e7565b005b610359600480360381019061035491906118d0565b61091d565b6040516103669190611afa565b60405180910390f35b61038960048036038101906103849190611842565b610950565b005b6103936109e5565b6040516103a09190611c71565b60405180910390f35b6103c360048036038101906103be919061178b565b6109ea565b005b6103df60048036038101906103da91906118d0565b610a11565b6040516103ec9190611c71565b60405180910390f35b61040f600480360381019061040a91906118f9565b610a58565b60405161041c9190611c71565b60405180910390f35b61043f600480360381019061043a9190611700565b610ba3565b60405161044c9190611bb4565b60405180910390f35b61046f600480360381019061046a91906118d0565b610c37565b604051610480959493929190611c8c565b60405180910390f35b610491610d13565b60405161049e9190611c71565b60405180910390f35b6104c160048036038101906104bc91906116d7565b610d19565b005b60006301ffc9a760e01b7bffffffffffffffffffffffffffffffffffffffffffffffffffffffff1916827bffffffffffffffffffffffffffffffffffffffffffffffffffffffff1916148061055c57506380ac58cd60e01b7bffffffffffffffffffffffffffffffffffffffffffffffffffffffff1916827bffffffffffffffffffffffffffffffffffffffffffffffffffffffff1916145b9050919050565b6040518060400160405280600d81526020017f43727970746f4b6974746965730000000000000000000000000000000000000081525081565b600060018054905082106105af57600080fd5b6004600083815260200190815260200160002060009054906101000a900473ffffffffffffffffffffffffffffffffffffffff169050919050565b6105f43382610d9d565b6105fd57600080fd5b6106078183610e09565b808273ffffffffffffffffffffffffffffffffffffffff163373ffffffffffffffffffffffffffffffffffffffff167f8c5be1e5ebec7d5bd14f71427d1e84f3dd0314c0f7b2291e5b200ac8c7c3b92560405160405180910390a45050565b6000600180549050905090565b61067f33848484610e5f565b61068857600080fd5b610693838383610f1a565b505050565b6106b3838383604051806020016040528060008152506109ea565b505050565b60046020528060005260406000206000915054906101000a900473ffffffffffffffffffffffffffffffffffffffff1681565b60006002600083815260200190815260200160002060009054906101000a900473ffffffffffffffffffffffffffffffffffffffff169050919050565b6000600360008373ffffffffffffffffffffffffffffffffffffffff1673ffffffffffffffffffffffffffffffffffffffff168152602001908152602001600020549050919050565b6107796110e1565b610783600061115f565b565b60008060009054906101000a900473ffffffffffffffffffffffffffffffffffffffff16905090565b6040518060400160405280600381526020017f43524b000000000000000000000000000000000000000000000000000000000081525081565b3373ffffffffffffffffffffffffffffffffffffffff168273ffffffffffffffffffffffffffffffffffffffff16141561082057600080fd5b80600560003373ffffffffffffffffffffffffffffffffffffffff1673ffffffffffffffffffffffffffffffffffffffff16815260200190815260200160002060008473ffffffffffffffffffffffffffffffffffffffff1673ffffffffffffffffffffffffffffffffffffffff16815260200190815260200160002060006101000a81548160ff0219169083151502179055508173ffffffffffffffffffffffffffffffffffffffff163373ffffffffffffffffffffffffffffffffffffffff167f17307eab39ab6107e8899845ad3d59bd9653f200f220920489ca2b5937696c31836040516109119190611bb4565b60405180910390a35050565b60026020528060005260406000206000915054906101000a900473ffffffffffffffffffffffffffffffffffffffff1681565b600073ffffffffffffffffffffffffffffffffffffffff168273ffffffffffffffffffffffffffffffffffffffff16141561098a57600080fd5b3073ffffffffffffffffffffffffffffffffffffffff168273ffffffffffffffffffffffffffffffffffffffff1614156109c357600080fd5b6109cd3382610d9d565b6109d657600080fd5b6109e1338383610f1a565b5050565b600a81565b6109f633858585610e5f565b6109ff57600080fd5b610a0b84848484611223565b50505050565b6000610a1b6110e1565b600a60065410610a2a57600080fd5b60066000815480929190610a3d90611f6d565b9190505550610a516000806000853361127f565b9050919050565b6000610a643384610d9d565b610aa3576040517f08c379a0000000000000000000000000000000000000000000000000000000008152600401610a9a90611c51565b60405180910390fd5b610aad3383610d9d565b610aec576040517f08c379a0000000000000000000000000000000000000000000000000000000008152600401610ae390611c51565b60405180910390fd5b600080610af885610c37565b94505050509150600080610b0b86610c37565b945050505091506000610b1e858461140b565b9050600082851015610b4d57600183610b379190611d78565b9050600281610b469190611dce565b9050610b89565b82851115610b7857600185610b629190611d78565b9050600281610b719190611dce565b9050610b88565b600183610b859190611d78565b90505b5b610b96888a83853361127f565b5050505050505092915050565b6000600560008473ffffffffffffffffffffffffffffffffffffffff1673ffffffffffffffffffffffffffffffffffffffff16815260200190815260200160002060008373ffffffffffffffffffffffffffffffffffffffff1673ffffffffffffffffffffffffffffffffffffffff16815260200190815260200160002060009054906101000a900460ff16905092915050565b60008060008060008060018781548110610c7a577f4e487b7100000000000000000000000000000000000000000000000000000000600052603260045260246000fd5b906000526020600020906002020190508060010160009054906101000a900467ffffffffffffffff1667ffffffffffffffff1694508060010160089054906101000a900463ffffffff1663ffffffff16935080600101600c9054906101000a900463ffffffff1663ffffffff1692508060010160109054906101000a900461ffff1661ffff169150806000015495505091939590929450565b60065481565b610d216110e1565b600073ffffffffffffffffffffffffffffffffffffffff168173ffffffffffffffffffffffffffffffffffffffff161415610d91576040517f08c379a0000000000000000000000000000000000000000000000000000000008152600401610d8890611bf1565b60405180910390fd5b610d9a8161115f565b50565b60008273ffffffffffffffffffffffffffffffffffffffff166002600084815260200190815260200160002060009054906101000a900473ffffffffffffffffffffffffffffffffffffffff1673ffffffffffffffffffffffffffffffffffffffff1614905092915050565b806004600084815260200190815260200160002060006101000a81548173ffffffffffffffffffffffffffffffffffffffff021916908373ffffffffffffffffffffffffffffffffffffffff1602179055505050565b60006001805490508210610e7257600080fd5b600073ffffffffffffffffffffffffffffffffffffffff168373ffffffffffffffffffffffffffffffffffffffff161415610eac57600080fd5b610eb63383610d9d565b610ebf57600080fd5b8373ffffffffffffffffffffffffffffffffffffffff168573ffffffffffffffffffffffffffffffffffffffff161480610eff5750610efe858361145f565b5b80610f105750610f0f8486610ba3565b5b9050949350505050565b600360008373ffffffffffffffffffffffffffffffffffffffff1673ffffffffffffffffffffffffffffffffffffffff1681526020019081526020016000206000815480929190610f6a90611f6d565b9190505550816002600083815260200190815260200160002060006101000a81548173ffffffffffffffffffffffffffffffffffffffff021916908373ffffffffffffffffffffffffffffffffffffffff160217905550600073ffffffffffffffffffffffffffffffffffffffff168373ffffffffffffffffffffffffffffffffffffffff161461108157600360008473ffffffffffffffffffffffffffffffffffffffff1673ffffffffffffffffffffffffffffffffffffffff168152602001908152602001600020600081548092919061104590611f43565b91905055506004600082815260200190815260200160002060006101000a81549073ffffffffffffffffffffffffffffffffffffffff02191690555b808273ffffffffffffffffffffffffffffffffffffffff168473ffffffffffffffffffffffffffffffffffffffff167fddf252ad1be2c89b69c2b068fc378daa952ba7f163c4a11628f55a4df523b3ef60405160405180910390a4505050565b6110e96114cb565b73ffffffffffffffffffffffffffffffffffffffff16611107610785565b73ffffffffffffffffffffffffffffffffffffffff161461115d576040517f08c379a000000000000000000000000000000000000000000000000000000000815260040161115490611c31565b60405180910390fd5b565b60008060009054906101000a900473ffffffffffffffffffffffffffffffffffffffff169050816000806101000a81548173ffffffffffffffffffffffffffffffffffffffff021916908373ffffffffffffffffffffffffffffffffffffffff1602179055508173ffffffffffffffffffffffffffffffffffffffff168173ffffffffffffffffffffffffffffffffffffffff167f8be0079c531659141344cd1fd0a4f28419497f9722a3daafe3b4186f6b6457e060405160405180910390a35050565b61122f848484846114d3565b61126e576040517f08c379a000000000000000000000000000000000000000000000000000000000815260040161126590611c11565b60405180910390fd5b611279848484610f1a565b50505050565b6000806040518060a001604052808581526020014267ffffffffffffffff1681526020018863ffffffff1681526020018763ffffffff1681526020018661ffff16815250905060018190806001815401808255809150506001900390600052602060002090600202016000909190919091506000820151816000015560208201518160010160006101000a81548167ffffffffffffffff021916908367ffffffffffffffff16021790555060408201518160010160086101000a81548163ffffffff021916908363ffffffff160217905550606082015181600101600c6101000a81548163ffffffff021916908363ffffffff16021790555060808201518160010160106101000a81548161ffff021916908361ffff16021790555050506000600180805490506113b09190611e59565b90506113be60008583610f1a565b7f0a5311bd2a6608f08a180df2ee7c5946819a649b204b554bb8e39825b2c50ad584828a8a896040516113f5959493929190611b61565b60405180910390a1809250505095945050505050565b6000806305f5e1008461141e9190611dce565b905060006305f5e100846114329190611fb6565b90506000816305f5e100846114479190611dff565b6114519190611d78565b905080935050505092915050565b60008273ffffffffffffffffffffffffffffffffffffffff166004600084815260200190815260200160002060009054906101000a900473ffffffffffffffffffffffffffffffffffffffff1673ffffffffffffffffffffffffffffffffffffffff1614905092915050565b600033905090565b60006114de846115ed565b6114eb57600190506115e5565b60008473ffffffffffffffffffffffffffffffffffffffff1663150b7a02338887876040518563ffffffff1660e01b815260040161152c9493929190611b15565b602060405180830381600087803b15801561154657600080fd5b505af115801561155a573d6000803e3d6000fd5b505050506040513d601f19601f8201168201806040525081019061157e91906118a7565b90507f150b7a023d4804d13e8c85fb27262cb750cf6ba9f9dd3bb30d90f482ceeb4b1f7bffffffffffffffffffffffffffffffffffffffffffffffffffffffff1916817bffffffffffffffffffffffffffffffffffffffffffffffffffffffff1916149150505b949350505050565b600080823b905060008163ffffffff1611915050919050565b600061161961161484611d10565b611cdf565b90508281526020810184848401111561163157600080fd5b61163c848285611f01565b509392505050565b60008135905061165381612085565b92915050565b6000813590506116688161209c565b92915050565b60008135905061167d816120b3565b92915050565b600081519050611692816120b3565b92915050565b600082601f8301126116a957600080fd5b81356116b9848260208601611606565b91505092915050565b6000813590506116d1816120ca565b92915050565b6000602082840312156116e957600080fd5b60006116f784828501611644565b91505092915050565b6000806040838503121561171357600080fd5b600061172185828601611644565b925050602061173285828601611644565b9150509250929050565b60008060006060848603121561175157600080fd5b600061175f86828701611644565b935050602061177086828701611644565b9250506040611781868287016116c2565b9150509250925092565b600080600080608085870312156117a157600080fd5b60006117af87828801611644565b94505060206117c087828801611644565b93505060406117d1878288016116c2565b925050606085013567ffffffffffffffff8111156117ee57600080fd5b6117fa87828801611698565b91505092959194509250565b6000806040838503121561181957600080fd5b600061182785828601611644565b925050602061183885828601611659565b9150509250929050565b6000806040838503121561185557600080fd5b600061186385828601611644565b9250506020611874858286016116c2565b9150509250929050565b60006020828403121561189057600080fd5b600061189e8482850161166e565b91505092915050565b6000602082840312156118b957600080fd5b60006118c784828501611683565b91505092915050565b6000602082840312156118e257600080fd5b60006118f0848285016116c2565b91505092915050565b6000806040838503121561190c57600080fd5b600061191a858286016116c2565b925050602061192b858286016116c2565b9150509250929050565b61193e81611e8d565b82525050565b61194d81611e9f565b82525050565b600061195e82611d40565b6119688185611d56565b9350611978818560208601611f10565b61198181612074565b840191505092915050565b600061199782611d4b565b6119a18185611d67565b93506119b1818560208601611f10565b6119ba81612074565b840191505092915050565b60006119d2602683611d67565b91507f4f776e61626c653a206e6577206f776e657220697320746865207a65726f206160008301527f64647265737300000000000000000000000000000000000000000000000000006020830152604082019050919050565b6000611a38601583611d67565b91507f455243373231204e4f5420737570706f727465642100000000000000000000006000830152602082019050919050565b6000611a78602083611d67565b91507f4f776e61626c653a2063616c6c6572206973206e6f7420746865206f776e65726000830152602082019050919050565b6000611ab8602083611d67565b91507f546865207573657220646f6573204e4f54206f776e2074686520746f6b656e216000830152602082019050919050565b611af481611ef7565b82525050565b6000602082019050611b0f6000830184611935565b92915050565b6000608082019050611b2a6000830187611935565b611b376020830186611935565b611b446040830185611aeb565b8181036060830152611b568184611953565b905095945050505050565b600060a082019050611b766000830188611935565b611b836020830187611aeb565b611b906040830186611aeb565b611b9d6060830185611aeb565b611baa6080830184611aeb565b9695505050505050565b6000602082019050611bc96000830184611944565b92915050565b60006020820190508181036000830152611be9818461198c565b905092915050565b60006020820190508181036000830152611c0a816119c5565b9050919050565b60006020820190508181036000830152611c2a81611a2b565b9050919050565b60006020820190508181036000830152611c4a81611a6b565b9050919050565b60006020820190508181036000830152611c6a81611aab565b9050919050565b6000602082019050611c866000830184611aeb565b92915050565b600060a082019050611ca16000830188611aeb565b611cae6020830187611aeb565b611cbb6040830186611aeb565b611cc86060830185611aeb565b611cd56080830184611aeb565b9695505050505050565b6000604051905081810181811067ffffffffffffffff82111715611d0657611d05612045565b5b8060405250919050565b600067ffffffffffffffff821115611d2b57611d2a612045565b5b601f19601f8301169050602081019050919050565b600081519050919050565b600081519050919050565b600082825260208201905092915050565b600082825260208201905092915050565b6000611d8382611ef7565b9150611d8e83611ef7565b9250827fffffffffffffffffffffffffffffffffffffffffffffffffffffffffffffffff03821115611dc357611dc2611fe7565b5b828201905092915050565b6000611dd982611ef7565b9150611de483611ef7565b925082611df457611df3612016565b5b828204905092915050565b6000611e0a82611ef7565b9150611e1583611ef7565b9250817fffffffffffffffffffffffffffffffffffffffffffffffffffffffffffffffff0483118215151615611e4e57611e4d611fe7565b5b828202905092915050565b6000611e6482611ef7565b9150611e6f83611ef7565b925082821015611e8257611e81611fe7565b5b828203905092915050565b6000611e9882611ed7565b9050919050565b60008115159050919050565b60007fffffffff0000000000000000000000000000000000000000000000000000000082169050919050565b600073ffffffffffffffffffffffffffffffffffffffff82169050919050565b6000819050919050565b82818337600083830152505050565b60005b83811015611f2e578082015181840152602081019050611f13565b83811115611f3d576000848401525b50505050565b6000611f4e82611ef7565b91506000821415611f6257611f61611fe7565b5b600182039050919050565b6000611f7882611ef7565b91507fffffffffffffffffffffffffffffffffffffffffffffffffffffffffffffffff821415611fab57611faa611fe7565b5b600182019050919050565b6000611fc182611ef7565b9150611fcc83611ef7565b925082611fdc57611fdb612016565b5b828206905092915050565b7f4e487b7100000000000000000000000000000000000000000000000000000000600052601160045260246000fd5b7f4e487b7100000000000000000000000000000000000000000000000000000000600052601260045260246000fd5b7f4e487b7100000000000000000000000000000000000000000000000000000000600052604160045260246000fd5b6000601f19601f8301169050919050565b61208e81611e8d565b811461209957600080fd5b50565b6120a581611e9f565b81146120b057600080fd5b50565b6120bc81611eab565b81146120c757600080fd5b50565b6120d381611ef7565b81146120de57600080fd5b5056fea2646970667358221220110ad70691ab0582c88ffb66b908aa445741e5efdf255a181d10d58919a1986864736f6c63430008000033",
  "immutableReferences": {},
  "source": "// SPDX-License-Identifier: MIT\npragma solidity ^0.8.0;\n\nimport \"./IERC721.sol\";\nimport \"../node_modules/@openzeppelin/contracts/access/Ownable.sol\";\nimport \"./IERC721Receiver.sol\";\n\ncontract KittyContract is IERC721, Ownable {\n    string public constant override name = \"CryptoKitties\";\n    string public constant override symbol = \"CRK\";\n    uint256 public constant CREATION_LIMIT_GEN0 = 10;\n    bytes4 private constant MAGIC_ERC721_RECIEVED =\n        bytes4(keccak256(\"onERC721Received(address,address,uint256,bytes)\"));\n\n    bytes4 private constant _INTERFACE_ID_ERC721 = 0x80ac58cd;\n    bytes4 private constant _INTERFACE_ID_ERC165 = 0x01ffc9a7;\n\n    event Birth(\n        address owner,\n        uint256 kittenID,\n        uint256 mumID,\n        uint256 dadID,\n        uint256 genes\n    );\n\n    struct Kitty {\n        uint256 genes;\n        uint64 birthTime;\n        uint32 mumID;\n        uint32 dadID;\n        uint16 generation;\n    }\n\n    Kitty[] kitties;\n\n    mapping(uint256 => address) public kittyIndexToOwner;\n    mapping(address => uint256) ownershipTokenCount;\n    mapping(uint256 => address) public kittyIndexToApproved;\n\n    mapping(address => mapping(address => bool)) private _operatorApprovals;\n\n    uint256 public gen0Counter;\n\n    function breed(uint256 _dadID, uint256 _mumID) public returns (uint256) {\n        require(_owns(msg.sender, _dadID), \"The user does NOT own the token!\");\n        require(_owns(msg.sender, _mumID), \"The user does NOT own the token!\");\n\n        (uint256 dadDNA, , , , uint256 dadGeneration) = getKitty(_dadID);\n        (uint256 mumDNA, , , , uint256 mumGeneration) = getKitty(_mumID);\n\n        uint256 newDNA = _mixDNA(dadDNA, mumDNA);\n\n        uint256 kidGen = 0;\n\n        if (dadGeneration < mumGeneration) {\n            kidGen = mumGeneration + 1;\n            kidGen /= 2;\n        } else if (dadGeneration > mumGeneration) {\n            kidGen = dadGeneration + 1;\n            kidGen /= 2;\n        } else {\n            kidGen = mumGeneration + 1;\n        }\n\n        _createKitty(_mumID, _dadID, kidGen, newDNA, msg.sender);\n    }\n\n    function supportsInterface(bytes4 _interfaceId)\n        external\n        view\n        returns (bool)\n    {\n        return (_interfaceId == _INTERFACE_ID_ERC165 ||\n            _interfaceId == _INTERFACE_ID_ERC721);\n    }\n\n    function approve(address _to, uint256 _tokenId) external override {\n        require(_owns(msg.sender, _tokenId));\n\n        _approve(_tokenId, _to);\n        emit Approval(msg.sender, _to, _tokenId);\n    }\n\n    function setApprovalForAll(address operator, bool approved)\n        public\n        override\n    {\n        require(operator != msg.sender);\n\n        _operatorApprovals[msg.sender][operator] = approved;\n        emit ApprovalForAll(msg.sender, operator, approved);\n    }\n\n    function getApproved(uint256 tokenId)\n        public\n        view\n        override\n        returns (address)\n    {\n        require(tokenId < kitties.length); //Token must exists\n\n        return kittyIndexToApproved[tokenId];\n    }\n\n    function isApprovedForAll(address owner, address operator)\n        public\n        view\n        override\n        returns (bool)\n    {\n        return _operatorApprovals[owner][operator];\n    }\n\n    function getKitty(uint256 _id)\n        public\n        view\n        returns (\n            uint256 genes,\n            uint256 birthtime,\n            uint256 mumID,\n            uint256 dadID,\n            uint256 generation\n        )\n    {\n        Kitty storage kitty = kitties[_id];\n\n        birthtime = uint256(kitty.birthTime);\n        mumID = uint256(kitty.mumID);\n        dadID = uint256(kitty.dadID);\n        generation = uint256(kitty.generation);\n        genes = kitty.genes;\n    }\n\n    function createKittyGen0(uint256 _genes)\n        public\n        onlyOwner\n        returns (uint256)\n    {\n        require(gen0Counter < CREATION_LIMIT_GEN0);\n\n        gen0Counter++;\n\n        //Gen0 have no owners, they are own by the contract\n        return _createKitty(0, 0, 0, _genes, msg.sender);\n    }\n\n    function _createKitty(\n        uint256 _mumID,\n        uint256 _dadID,\n        uint256 _generation,\n        uint256 _genes,\n        address _owner\n    ) private returns (uint256) {\n        Kitty memory _kitty = Kitty({\n            genes: _genes,\n            birthTime: uint64(block.timestamp),\n            mumID: uint32(_mumID),\n            dadID: uint32(_dadID),\n            generation: uint16(_generation)\n        });\n\n        kitties.push(_kitty);\n\n        uint256 newKittenID = kitties.length - 1;\n\n        _transfer(address(0), _owner, newKittenID);\n\n        emit Birth(_owner, newKittenID, _mumID, _dadID, _genes);\n\n        return newKittenID;\n    }\n\n    function balanceOf(address owner)\n        external\n        view\n        override\n        returns (uint256 balance)\n    {\n        return ownershipTokenCount[owner];\n    }\n\n    function totalSupply() external view override returns (uint256 total) {\n        return kitties.length;\n    }\n\n    // function name() external view returns (string memory tokenName) {\n    //     return name;\n    // }\n\n    // function symbol() external view returns (string memory tokenSymbol) {\n    //     return symbol;\n    // }\n\n    function ownerOf(uint256 _tokenId)\n        external\n        view\n        override\n        returns (address owner)\n    {\n        //require(kittyIndexToOwner[_tokenId], \"Token does not exist!\");\n        return kittyIndexToOwner[_tokenId];\n    }\n\n    function transfer(address _to, uint256 _tokenId) external override {\n        require(_to != address(0));\n        require(_to != address(this));\n        require(_owns(msg.sender, _tokenId));\n\n        _transfer(msg.sender, _to, _tokenId);\n    }\n\n    function _transfer(\n        address _from,\n        address _to,\n        uint256 _tokenId\n    ) internal {\n        ownershipTokenCount[_to]++;\n\n        kittyIndexToOwner[_tokenId] = _to;\n\n        //Decrease owner's kitty balance - unless it's a newly minted kitty\n        if (_from != address(0)) {\n            ownershipTokenCount[_from]--;\n            delete kittyIndexToApproved[_tokenId];\n        }\n\n        emit Transfer(_from, _to, _tokenId);\n    }\n\n    function _owns(address _claimant, uint256 _tokenId)\n        internal\n        view\n        returns (bool)\n    {\n        return kittyIndexToOwner[_tokenId] == _claimant;\n    }\n\n    function _approve(uint256 _tokenId, address _approved) internal {\n        kittyIndexToApproved[_tokenId] = _approved;\n    }\n\n    function _approvedFor(address _claimant, uint256 _tokenId)\n        internal\n        view\n        returns (bool)\n    {\n        return kittyIndexToApproved[_tokenId] == _claimant;\n    }\n\n    function transferFrom(\n        address _from,\n        address _to,\n        uint256 _tokenId\n    ) external override {\n        require(_isApprovedOrOwner(msg.sender, _from, _to, _tokenId));\n\n        _transfer(_from, _to, _tokenId);\n    }\n\n    function _safeTransfer(\n        address _from,\n        address _to,\n        uint256 _tokenId,\n        bytes memory _data\n    ) internal {\n        require(\n            _checkERC721Support(_from, _to, _tokenId, _data),\n            \"ERC721 NOT supported!\"\n        );\n\n        _transfer(_from, _to, _tokenId);\n    }\n\n    function _checkERC721Support(\n        address _from,\n        address _to,\n        uint256 _tokenId,\n        bytes memory _data\n    ) internal returns (bool) {\n        if (!_isContract(_to)) {\n            return true;\n        }\n\n        bytes4 returnData = IERC721Receiver(_to).onERC721Received(\n            msg.sender,\n            _from,\n            _tokenId,\n            _data\n        );\n\n        return returnData == MAGIC_ERC721_RECIEVED;\n    }\n\n    function _isContract(address _to) internal view returns (bool) {\n        uint32 size;\n        assembly {\n            size := extcodesize(_to)\n        }\n        return size > 0;\n    }\n\n    //safeTransferFrom without data\n    function safeTransferFrom(\n        address _from,\n        address _to,\n        uint256 _tokenId\n    ) public override {\n        safeTransferFrom(_from, _to, _tokenId, \"\");\n    }\n\n    //safeTransferFrom with data\n    function safeTransferFrom(\n        address _from,\n        address _to,\n        uint256 _tokenId,\n        bytes memory _data\n    ) public override {\n        require(_isApprovedOrOwner(msg.sender, _from, _to, _tokenId));\n        _safeTransfer(_from, _to, _tokenId, _data);\n    }\n\n    function _isApprovedOrOwner(\n        address _spender,\n        address _from,\n        address _to,\n        uint256 _tokenId\n    ) internal view returns (bool) {\n        require(_tokenId < kitties.length); //token must exist\n        require(_to != address(0));\n        require(_owns(msg.sender, _tokenId));\n\n        return (_spender == _from ||\n            _approvedFor(_spender, _tokenId) ||\n            isApprovedForAll(_from, _spender));\n    }\n\n    function _mixDNA(uint256 _dadDNA, uint256 _mumDNA)\n        internal\n        returns (uint256)\n    {\n        uint256 firstHalf = _dadDNA / 100000000;\n        uint256 secondHalf = _mumDNA % 100000000;\n\n        uint256 newDNA = firstHalf * 100000000 + secondHalf;\n\n        return newDNA;\n    }\n}\n",
  "sourcePath": "/home/plamen/Documents/VSCode/Moralis/academy-kitties-template-master/contracts/KittyContract.sol",
  "compiler": {
    "name": "solc",
    "version": "0.8.0+commit.c7dfd78e.Emscripten.clang"
  },
  "schemaVersion": "3.4.8",
  "updatedAt": "2022-08-06T08:57:45.601Z",
  "networkType": "ethereum",
  "devdoc": {
    "kind": "dev",
    "methods": {
      "balanceOf(address)": {
        "details": "Returns the number of tokens in ``owner``'s account."
      },
      "owner()": {
        "details": "Returns the address of the current owner."
      },
      "renounceOwnership()": {
        "details": "Leaves the contract without owner. It will not be possible to call `onlyOwner` functions anymore. Can only be called by the current owner. NOTE: Renouncing ownership will leave the contract without an owner, thereby removing any functionality that is only available to the owner."
      },
      "safeTransferFrom(address,address,uint256)": {
        "details": "This works identically to the other function with an extra data parameter,  except this function just sets data to \"\".",
        "params": {
          "_from": "The current owner of the NFT",
          "_to": "The new owner",
          "_tokenId": "The NFT to transfer"
        }
      },
      "transferFrom(address,address,uint256)": {
        "details": "Throws unless `msg.sender` is the current owner, an authorized  operator, or the approved address for this NFT. Throws if `_from` is  not the current owner. Throws if `_to` is the zero address. Throws if  `_tokenId` is not a valid NFT.",
        "params": {
          "_from": "The current owner of the NFT",
          "_to": "The new owner",
          "_tokenId": "The NFT to transfer"
        }
      },
      "transferOwnership(address)": {
        "details": "Transfers ownership of the contract to a new account (`newOwner`). Can only be called by the current owner."
      }
    },
    "version": 1
  },
  "userdoc": {
    "kind": "user",
    "methods": {
      "safeTransferFrom(address,address,uint256)": {
        "notice": "Transfers the ownership of an NFT from one address to another address"
      },
      "transferFrom(address,address,uint256)": {
        "notice": "Transfer ownership of an NFT -- THE CALLER IS RESPONSIBLE  TO CONFIRM THAT `_to` IS CAPABLE OF RECEIVING NFTS OR ELSE  THEY MAY BE PERMANENTLY LOST"
      }
    },
    "version": 1
  }
}