{
  "contractName": "KittyContract",
  "abi": [
    {
      "anonymous": false,
      "inputs": [
        {
          "indexed": true,
          "internalType": "address",
          "name": "owner",
          "type": "address"
        },
        {
          "indexed": true,
          "internalType": "address",
          "name": "approved",
          "type": "address"
        },
        {
          "indexed": true,
          "internalType": "uint256",
          "name": "tokenId",
          "type": "uint256"
        }
      ],
      "name": "Approval",
      "type": "event"
    },
    {
      "anonymous": false,
      "inputs": [
        {
          "indexed": true,
          "internalType": "address",
          "name": "owner",
          "type": "address"
        },
        {
          "indexed": true,
          "internalType": "address",
          "name": "operator",
          "type": "address"
        },
        {
          "indexed": false,
          "internalType": "bool",
          "name": "approved",
          "type": "bool"
        }
      ],
      "name": "ApprovalForAll",
      "type": "event"
    },
    {
      "anonymous": false,
      "inputs": [
        {
          "indexed": false,
          "internalType": "address",
          "name": "owner",
          "type": "address"
        },
        {
          "indexed": false,
          "internalType": "uint256",
          "name": "kittenID",
          "type": "uint256"
        },
        {
          "indexed": false,
          "internalType": "uint256",
          "name": "mumID",
          "type": "uint256"
        },
        {
          "indexed": false,
          "internalType": "uint256",
          "name": "dadID",
          "type": "uint256"
        },
        {
          "indexed": false,
          "internalType": "uint256",
          "name": "genes",
          "type": "uint256"
        }
      ],
      "name": "Birth",
      "type": "event"
    },
    {
      "anonymous": false,
      "inputs": [
        {
          "indexed": true,
          "internalType": "address",
          "name": "previousOwner",
          "type": "address"
        },
        {
          "indexed": true,
          "internalType": "address",
          "name": "newOwner",
          "type": "address"
        }
      ],
      "name": "OwnershipTransferred",
      "type": "event"
    },
    {
      "anonymous": false,
      "inputs": [
        {
          "indexed": true,
          "internalType": "address",
          "name": "from",
          "type": "address"
        },
        {
          "indexed": true,
          "internalType": "address",
          "name": "to",
          "type": "address"
        },
        {
          "indexed": true,
          "internalType": "uint256",
          "name": "tokenId",
          "type": "uint256"
        }
      ],
      "name": "Transfer",
      "type": "event"
    },
    {
      "inputs": [],
      "name": "CREATION_LIMIT_GEN0",
      "outputs": [
        {
          "internalType": "uint256",
          "name": "",
          "type": "uint256"
        }
      ],
      "stateMutability": "view",
      "type": "function",
      "constant": true
    },
    {
      "inputs": [],
      "name": "gen0Counter",
      "outputs": [
        {
          "internalType": "uint256",
          "name": "",
          "type": "uint256"
        }
      ],
      "stateMutability": "view",
      "type": "function",
      "constant": true
    },
    {
      "inputs": [
        {
          "internalType": "uint256",
          "name": "",
          "type": "uint256"
        }
      ],
      "name": "kittyIndexToApproved",
      "outputs": [
        {
          "internalType": "address",
          "name": "",
          "type": "address"
        }
      ],
      "stateMutability": "view",
      "type": "function",
      "constant": true
    },
    {
      "inputs": [
        {
          "internalType": "uint256",
          "name": "",
          "type": "uint256"
        }
      ],
      "name": "kittyIndexToOwner",
      "outputs": [
        {
          "internalType": "address",
          "name": "",
          "type": "address"
        }
      ],
      "stateMutability": "view",
      "type": "function",
      "constant": true
    },
    {
      "inputs": [],
      "name": "name",
      "outputs": [
        {
          "internalType": "string",
          "name": "",
          "type": "string"
        }
      ],
      "stateMutability": "view",
      "type": "function",
      "constant": true
    },
    {
      "inputs": [],
      "name": "owner",
      "outputs": [
        {
          "internalType": "address",
          "name": "",
          "type": "address"
        }
      ],
      "stateMutability": "view",
      "type": "function",
      "constant": true
    },
    {
      "inputs": [],
      "name": "renounceOwnership",
      "outputs": [],
      "stateMutability": "nonpayable",
      "type": "function"
    },
    {
      "inputs": [],
      "name": "symbol",
      "outputs": [
        {
          "internalType": "string",
          "name": "",
          "type": "string"
        }
      ],
      "stateMutability": "view",
      "type": "function",
      "constant": true
    },
    {
      "inputs": [
        {
          "internalType": "address",
          "name": "newOwner",
          "type": "address"
        }
      ],
      "name": "transferOwnership",
      "outputs": [],
      "stateMutability": "nonpayable",
      "type": "function"
    },
    {
      "inputs": [
        {
          "internalType": "address",
          "name": "_to",
          "type": "address"
        },
        {
          "internalType": "uint256",
          "name": "_tokenId",
          "type": "uint256"
        }
      ],
      "name": "approve",
      "outputs": [],
      "stateMutability": "nonpayable",
      "type": "function"
    },
    {
      "inputs": [
        {
          "internalType": "address",
          "name": "operator",
          "type": "address"
        },
        {
          "internalType": "bool",
          "name": "approved",
          "type": "bool"
        }
      ],
      "name": "setApprovalForAll",
      "outputs": [],
      "stateMutability": "nonpayable",
      "type": "function"
    },
    {
      "inputs": [
        {
          "internalType": "uint256",
          "name": "tokenId",
          "type": "uint256"
        }
      ],
      "name": "getApproved",
      "outputs": [
        {
          "internalType": "address",
          "name": "",
          "type": "address"
        }
      ],
      "stateMutability": "view",
      "type": "function",
      "constant": true
    },
    {
      "inputs": [
        {
          "internalType": "address",
          "name": "owner",
          "type": "address"
        },
        {
          "internalType": "address",
          "name": "operator",
          "type": "address"
        }
      ],
      "name": "isApprovedForAll",
      "outputs": [
        {
          "internalType": "bool",
          "name": "",
          "type": "bool"
        }
      ],
      "stateMutability": "view",
      "type": "function",
      "constant": true
    },
    {
      "inputs": [
        {
          "internalType": "uint256",
          "name": "_id",
          "type": "uint256"
        }
      ],
      "name": "getKitty",
      "outputs": [
        {
          "internalType": "uint256",
          "name": "genes",
          "type": "uint256"
        },
        {
          "internalType": "uint256",
          "name": "birthtime",
          "type": "uint256"
        },
        {
          "internalType": "uint256",
          "name": "mumID",
          "type": "uint256"
        },
        {
          "internalType": "uint256",
          "name": "dadID",
          "type": "uint256"
        },
        {
          "internalType": "uint256",
          "name": "generation",
          "type": "uint256"
        }
      ],
      "stateMutability": "view",
      "type": "function",
      "constant": true
    },
    {
      "inputs": [
        {
          "internalType": "uint256",
          "name": "_genes",
          "type": "uint256"
        }
      ],
      "name": "createKittyGen0",
      "outputs": [
        {
          "internalType": "uint256",
          "name": "",
          "type": "uint256"
        }
      ],
      "stateMutability": "nonpayable",
      "type": "function"
    },
    {
      "inputs": [
        {
          "internalType": "address",
          "name": "owner",
          "type": "address"
        }
      ],
      "name": "balanceOf",
      "outputs": [
        {
          "internalType": "uint256",
          "name": "balance",
          "type": "uint256"
        }
      ],
      "stateMutability": "view",
      "type": "function",
      "constant": true
    },
    {
      "inputs": [],
      "name": "totalSupply",
      "outputs": [
        {
          "internalType": "uint256",
          "name": "total",
          "type": "uint256"
        }
      ],
      "stateMutability": "view",
      "type": "function",
      "constant": true
    },
    {
      "inputs": [
        {
          "internalType": "uint256",
          "name": "_tokenId",
          "type": "uint256"
        }
      ],
      "name": "ownerOf",
      "outputs": [
        {
          "internalType": "address",
          "name": "owner",
          "type": "address"
        }
      ],
      "stateMutability": "view",
      "type": "function",
      "constant": true
    },
    {
      "inputs": [
        {
          "internalType": "address",
          "name": "_to",
          "type": "address"
        },
        {
          "internalType": "uint256",
          "name": "_tokenId",
          "type": "uint256"
        }
      ],
      "name": "transfer",
      "outputs": [],
      "stateMutability": "nonpayable",
      "type": "function"
    },
    {
      "inputs": [
        {
          "internalType": "address",
          "name": "_from",
          "type": "address"
        },
        {
          "internalType": "address",
          "name": "_to",
          "type": "address"
        },
        {
          "internalType": "uint256",
          "name": "_tokenId",
          "type": "uint256"
        }
      ],
      "name": "transferFrom",
      "outputs": [],
      "stateMutability": "nonpayable",
      "type": "function"
    },
    {
      "inputs": [
        {
          "internalType": "address",
          "name": "_from",
          "type": "address"
        },
        {
          "internalType": "address",
          "name": "_to",
          "type": "address"
        },
        {
          "internalType": "uint256",
          "name": "_tokenId",
          "type": "uint256"
        }
      ],
      "name": "safeTransferFrom",
      "outputs": [],
      "stateMutability": "nonpayable",
      "type": "function"
    },
    {
      "inputs": [
        {
          "internalType": "address",
          "name": "_from",
          "type": "address"
        },
        {
          "internalType": "address",
          "name": "_to",
          "type": "address"
        },
        {
          "internalType": "uint256",
          "name": "_tokenId",
          "type": "uint256"
        },
        {
          "internalType": "bytes",
          "name": "_data",
          "type": "bytes"
        }
      ],
      "name": "safeTransferFrom",
      "outputs": [],
      "stateMutability": "nonpayable",
      "type": "function"
    }
  ],
  "bytecode": "0x608060405234801561001057600080fd5b5061002d61002261003260201b60201c565b61003a60201b60201c565b6100fe565b600033905090565b60008060009054906101000a900473ffffffffffffffffffffffffffffffffffffffff169050816000806101000a81548173ffffffffffffffffffffffffffffffffffffffff021916908373ffffffffffffffffffffffffffffffffffffffff1602179055508173ffffffffffffffffffffffffffffffffffffffff168173ffffffffffffffffffffffffffffffffffffffff167f8be0079c531659141344cd1fd0a4f28419497f9722a3daafe3b4186f6b6457e060405160405180910390a35050565b611f768061010d6000396000f3fe608060405234801561001057600080fd5b50600436106101425760003560e01c806395d89b41116100b8578063b88d4fde1161007c578063b88d4fde14610363578063d5a776ca1461037f578063e985e9c5146103af578063e98b7f4d146103df578063ef5e94aa14610413578063f2fde38b1461043157610142565b806395d89b41146102bf578063a22cb465146102dd578063a45f4bfc146102f9578063a9059cbb14610329578063b48343301461034557610142565b806342842e0e1161010a57806342842e0e146101eb578063481af3d3146102075780636352211e1461023757806370a0823114610267578063715018a6146102975780638da5cb5b146102a157610142565b806306fdde0314610147578063081812fc14610165578063095ea7b31461019557806318160ddd146101b157806323b872dd146101cf575b600080fd5b61014f61044d565b60405161015c9190611bae565b60405180910390f35b61017f600480360381019061017a91906117b9565b610486565b60405161018c9190611ad9565b60405180910390f35b6101af60048036038101906101aa9190611754565b6104d4565b005b6101b9610550565b6040516101c69190611cb0565b60405180910390f35b6101e960048036038101906101e49190611649565b61055d565b005b61020560048036038101906102009190611649565b6106fd565b005b610221600480360381019061021c91906117b9565b6107c9565b60405161022e9190611ad9565b60405180910390f35b610251600480360381019061024c91906117b9565b6107fc565b60405161025e9190611ad9565b60405180910390f35b610281600480360381019061027c91906115e4565b610839565b60405161028e9190611cb0565b60405180910390f35b61029f610882565b005b6102a9610896565b6040516102b69190611ad9565b60405180910390f35b6102c76108bf565b6040516102d49190611bae565b60405180910390f35b6102f760048036038101906102f29190611718565b6108f8565b005b610313600480360381019061030e91906117b9565b610a2e565b6040516103209190611ad9565b60405180910390f35b610343600480360381019061033e9190611754565b610a61565b005b61034d610af6565b60405161035a9190611cb0565b60405180910390f35b61037d60048036038101906103789190611698565b610afb565b005b610399600480360381019061039491906117b9565b610bd8565b6040516103a69190611cb0565b60405180910390f35b6103c960048036038101906103c4919061160d565b610c1f565b6040516103d69190611b93565b60405180910390f35b6103f960048036038101906103f491906117b9565b610cb3565b60405161040a959493929190611ccb565b60405180910390f35b61041b610d8f565b6040516104289190611cb0565b60405180910390f35b61044b600480360381019061044691906115e4565b610d95565b005b6040518060400160405280600d81526020017f43727970746f4b6974746965730000000000000000000000000000000000000081525081565b6000600180549050821061049957600080fd5b6004600083815260200190815260200160002060009054906101000a900473ffffffffffffffffffffffffffffffffffffffff169050919050565b6104de3382610e19565b6104e757600080fd5b6104f18183610e85565b808273ffffffffffffffffffffffffffffffffffffffff163373ffffffffffffffffffffffffffffffffffffffff167f8c5be1e5ebec7d5bd14f71427d1e84f3dd0314c0f7b2291e5b200ac8c7c3b92560405160405180910390a45050565b6000600180549050905090565b600073ffffffffffffffffffffffffffffffffffffffff168273ffffffffffffffffffffffffffffffffffffffff1614156105cd576040517f08c379a00000000000000000000000000000000000000000000000000000000081526004016105c490611c50565b60405180910390fd5b8273ffffffffffffffffffffffffffffffffffffffff163373ffffffffffffffffffffffffffffffffffffffff16148061060d575061060c3382610edb565b5b8061061e575061061d8333610c1f565b5b61065d576040517f08c379a000000000000000000000000000000000000000000000000000000000815260040161065490611c90565b60405180910390fd5b6106678382610e19565b6106a6576040517f08c379a000000000000000000000000000000000000000000000000000000000815260040161069d90611c70565b60405180910390fd5b60018054905081106106ed576040517f08c379a00000000000000000000000000000000000000000000000000000000081526004016106e490611bd0565b60405180910390fd5b6106f8838383610f1a565b505050565b600073ffffffffffffffffffffffffffffffffffffffff168273ffffffffffffffffffffffffffffffffffffffff16141561073757600080fd5b3073ffffffffffffffffffffffffffffffffffffffff168273ffffffffffffffffffffffffffffffffffffffff16141561077057600080fd5b61077a3382610e19565b61078357600080fd5b6107c48383836040518060400160405280600181526020017f30000000000000000000000000000000000000000000000000000000000000008152506110e1565b505050565b60046020528060005260406000206000915054906101000a900473ffffffffffffffffffffffffffffffffffffffff1681565b60006002600083815260200190815260200160002060009054906101000a900473ffffffffffffffffffffffffffffffffffffffff169050919050565b6000600360008373ffffffffffffffffffffffffffffffffffffffff1673ffffffffffffffffffffffffffffffffffffffff168152602001908152602001600020549050919050565b61088a61113d565b61089460006111bb565b565b60008060009054906101000a900473ffffffffffffffffffffffffffffffffffffffff16905090565b6040518060400160405280600381526020017f43524b000000000000000000000000000000000000000000000000000000000081525081565b3373ffffffffffffffffffffffffffffffffffffffff168273ffffffffffffffffffffffffffffffffffffffff16141561093157600080fd5b80600560003373ffffffffffffffffffffffffffffffffffffffff1673ffffffffffffffffffffffffffffffffffffffff16815260200190815260200160002060008473ffffffffffffffffffffffffffffffffffffffff1673ffffffffffffffffffffffffffffffffffffffff16815260200190815260200160002060006101000a81548160ff0219169083151502179055508173ffffffffffffffffffffffffffffffffffffffff163373ffffffffffffffffffffffffffffffffffffffff167f17307eab39ab6107e8899845ad3d59bd9653f200f220920489ca2b5937696c3183604051610a229190611b93565b60405180910390a35050565b60026020528060005260406000206000915054906101000a900473ffffffffffffffffffffffffffffffffffffffff1681565b600073ffffffffffffffffffffffffffffffffffffffff168273ffffffffffffffffffffffffffffffffffffffff161415610a9b57600080fd5b3073ffffffffffffffffffffffffffffffffffffffff168273ffffffffffffffffffffffffffffffffffffffff161415610ad457600080fd5b610ade3382610e19565b610ae757600080fd5b610af2338383610f1a565b5050565b600a81565b600073ffffffffffffffffffffffffffffffffffffffff168473ffffffffffffffffffffffffffffffffffffffff161415610b3557600080fd5b3073ffffffffffffffffffffffffffffffffffffffff168473ffffffffffffffffffffffffffffffffffffffff161415610b6e57600080fd5b610b783384610e19565b610b8157600080fd5b610bd185858585858080601f016020809104026020016040519081016040528093929190818152602001838380828437600081840152601f19601f820116905080830192505050505050506110e1565b5050505050565b6000610be261113d565b600a60065410610bf157600080fd5b60066000815480929190610c0490611e5b565b9190505550610c186000806000853361127f565b9050919050565b6000600560008473ffffffffffffffffffffffffffffffffffffffff1673ffffffffffffffffffffffffffffffffffffffff16815260200190815260200160002060008373ffffffffffffffffffffffffffffffffffffffff1673ffffffffffffffffffffffffffffffffffffffff16815260200190815260200160002060009054906101000a900460ff16905092915050565b60008060008060008060018781548110610cf6577f4e487b7100000000000000000000000000000000000000000000000000000000600052603260045260246000fd5b906000526020600020906002020190508060010160009054906101000a900467ffffffffffffffff1667ffffffffffffffff1694508060010160089054906101000a900463ffffffff1663ffffffff16935080600101600c9054906101000a900463ffffffff1663ffffffff1692508060010160109054906101000a900461ffff1661ffff169150806000015495505091939590929450565b60065481565b610d9d61113d565b600073ffffffffffffffffffffffffffffffffffffffff168173ffffffffffffffffffffffffffffffffffffffff161415610e0d576040517f08c379a0000000000000000000000000000000000000000000000000000000008152600401610e0490611bf0565b60405180910390fd5b610e16816111bb565b50565b60008273ffffffffffffffffffffffffffffffffffffffff166002600084815260200190815260200160002060009054906101000a900473ffffffffffffffffffffffffffffffffffffffff1673ffffffffffffffffffffffffffffffffffffffff1614905092915050565b806004600084815260200190815260200160002060006101000a81548173ffffffffffffffffffffffffffffffffffffffff021916908373ffffffffffffffffffffffffffffffffffffffff1602179055505050565b60008273ffffffffffffffffffffffffffffffffffffffff166004600084815260200190815260200160002060009054906101000a9050505092915050565b600360008373ffffffffffffffffffffffffffffffffffffffff1673ffffffffffffffffffffffffffffffffffffffff1681526020019081526020016000206000815480929190610f6a90611e5b565b9190505550816002600083815260200190815260200160002060006101000a81548173ffffffffffffffffffffffffffffffffffffffff021916908373ffffffffffffffffffffffffffffffffffffffff160217905550600073ffffffffffffffffffffffffffffffffffffffff168373ffffffffffffffffffffffffffffffffffffffff161461108157600360008473ffffffffffffffffffffffffffffffffffffffff1673ffffffffffffffffffffffffffffffffffffffff168152602001908152602001600020600081548092919061104590611e31565b91905055506004600082815260200190815260200160002060006101000a81549073ffffffffffffffffffffffffffffffffffffffff02191690555b808273ffffffffffffffffffffffffffffffffffffffff168473ffffffffffffffffffffffffffffffffffffffff167fddf252ad1be2c89b69c2b068fc378daa952ba7f163c4a11628f55a4df523b3ef60405160405180910390a4505050565b6110ed8484848461140b565b61112c576040517f08c379a000000000000000000000000000000000000000000000000000000000815260040161112390611c10565b60405180910390fd5b611137848484610f1a565b50505050565b611145611525565b73ffffffffffffffffffffffffffffffffffffffff16611163610896565b73ffffffffffffffffffffffffffffffffffffffff16146111b9576040517f08c379a00000000000000000000000000000000000000000000000000000000081526004016111b090611c30565b60405180910390fd5b565b60008060009054906101000a900473ffffffffffffffffffffffffffffffffffffffff169050816000806101000a81548173ffffffffffffffffffffffffffffffffffffffff021916908373ffffffffffffffffffffffffffffffffffffffff1602179055508173ffffffffffffffffffffffffffffffffffffffff168173ffffffffffffffffffffffffffffffffffffffff167f8be0079c531659141344cd1fd0a4f28419497f9722a3daafe3b4186f6b6457e060405160405180910390a35050565b6000806040518060a001604052808581526020014267ffffffffffffffff1681526020018863ffffffff1681526020018763ffffffff1681526020018661ffff16815250905060018190806001815401808255809150506001900390600052602060002090600202016000909190919091506000820151816000015560208201518160010160006101000a81548167ffffffffffffffff021916908367ffffffffffffffff16021790555060408201518160010160086101000a81548163ffffffff021916908363ffffffff160217905550606082015181600101600c6101000a81548163ffffffff021916908363ffffffff16021790555060808201518160010160106101000a81548161ffff021916908361ffff16021790555050506000600180805490506113b09190611d56565b90506113be60008583610f1a565b7f0a5311bd2a6608f08a180df2ee7c5946819a649b204b554bb8e39825b2c50ad584828a8a896040516113f5959493929190611b40565b60405180910390a1809250505095945050505050565b60006114168461152d565b611423576001905061151d565b60008473ffffffffffffffffffffffffffffffffffffffff1663150b7a02338887876040518563ffffffff1660e01b81526004016114649493929190611af4565b602060405180830381600087803b15801561147e57600080fd5b505af1158015611492573d6000803e3d6000fd5b505050506040513d601f19601f820116820180604052508101906114b69190611790565b90507f150b7a023d4804d13e8c85fb27262cb750cf6ba9f9dd3bb30d90f482ceeb4b1f7bffffffffffffffffffffffffffffffffffffffffffffffffffffffff1916817bffffffffffffffffffffffffffffffffffffffffffffffffffffffff1916149150505b949350505050565b600033905090565b600080823b905060008163ffffffff1611915050919050565b60008135905061155581611ee4565b92915050565b60008135905061156a81611efb565b92915050565b60008151905061157f81611f12565b92915050565b60008083601f84011261159757600080fd5b8235905067ffffffffffffffff8111156115b057600080fd5b6020830191508360018202830111156115c857600080fd5b9250929050565b6000813590506115de81611f29565b92915050565b6000602082840312156115f657600080fd5b600061160484828501611546565b91505092915050565b6000806040838503121561162057600080fd5b600061162e85828601611546565b925050602061163f85828601611546565b9150509250929050565b60008060006060848603121561165e57600080fd5b600061166c86828701611546565b935050602061167d86828701611546565b925050604061168e868287016115cf565b9150509250925092565b6000806000806000608086880312156116b057600080fd5b60006116be88828901611546565b95505060206116cf88828901611546565b94505060406116e0888289016115cf565b935050606086013567ffffffffffffffff8111156116fd57600080fd5b61170988828901611585565b92509250509295509295909350565b6000806040838503121561172b57600080fd5b600061173985828601611546565b925050602061174a8582860161155b565b9150509250929050565b6000806040838503121561176757600080fd5b600061177585828601611546565b9250506020611786858286016115cf565b9150509250929050565b6000602082840312156117a257600080fd5b60006117b084828501611570565b91505092915050565b6000602082840312156117cb57600080fd5b60006117d9848285016115cf565b91505092915050565b6117eb81611d8a565b82525050565b6117fa81611d9c565b82525050565b600061180b82611d1e565b6118158185611d34565b9350611825818560208601611dfe565b61182e81611ed3565b840191505092915050565b600061184482611d29565b61184e8185611d45565b935061185e818560208601611dfe565b61186781611ed3565b840191505092915050565b600061187f601a83611d45565b91507f5468697320746f6b656e20646f6573206e6f74206578697374210000000000006000830152602082019050919050565b60006118bf602683611d45565b91507f4f776e61626c653a206e6577206f776e657220697320746865207a65726f206160008301527f64647265737300000000000000000000000000000000000000000000000000006020830152604082019050919050565b6000611925601583611d45565b91507f455243373231204e4f5420737570706f727465642100000000000000000000006000830152602082019050919050565b6000611965602083611d45565b91507f4f776e61626c653a2063616c6c6572206973206e6f7420746865206f776e65726000830152602082019050919050565b60006119a5602983611d45565b91507f5472616e7366657220746f207a65726f2d61646472657373206973206e6f742060008301527f706f737369626c652100000000000000000000000000000000000000000000006020830152604082019050919050565b6000611a0b602d83611d45565b91507f4f776e65722061646472657373206973206e6f7420636f6e6e6563746564207460008301527f6f207468697320746f6b656e21000000000000000000000000000000000000006020830152604082019050919050565b6000611a71603883611d45565b91507f4f6e6c79204f776e65722c204f70657261746f72206f7220417070726f76656460008301527f204164647265737365732063616e207472616e736665722100000000000000006020830152604082019050919050565b611ad381611df4565b82525050565b6000602082019050611aee60008301846117e2565b92915050565b6000608082019050611b0960008301876117e2565b611b1660208301866117e2565b611b236040830185611aca565b8181036060830152611b358184611800565b905095945050505050565b600060a082019050611b5560008301886117e2565b611b626020830187611aca565b611b6f6040830186611aca565b611b7c6060830185611aca565b611b896080830184611aca565b9695505050505050565b6000602082019050611ba860008301846117f1565b92915050565b60006020820190508181036000830152611bc88184611839565b905092915050565b60006020820190508181036000830152611be981611872565b9050919050565b60006020820190508181036000830152611c09816118b2565b9050919050565b60006020820190508181036000830152611c2981611918565b9050919050565b60006020820190508181036000830152611c4981611958565b9050919050565b60006020820190508181036000830152611c6981611998565b9050919050565b60006020820190508181036000830152611c89816119fe565b9050919050565b60006020820190508181036000830152611ca981611a64565b9050919050565b6000602082019050611cc56000830184611aca565b92915050565b600060a082019050611ce06000830188611aca565b611ced6020830187611aca565b611cfa6040830186611aca565b611d076060830185611aca565b611d146080830184611aca565b9695505050505050565b600081519050919050565b600081519050919050565b600082825260208201905092915050565b600082825260208201905092915050565b6000611d6182611df4565b9150611d6c83611df4565b925082821015611d7f57611d7e611ea4565b5b828203905092915050565b6000611d9582611dd4565b9050919050565b60008115159050919050565b60007fffffffff0000000000000000000000000000000000000000000000000000000082169050919050565b600073ffffffffffffffffffffffffffffffffffffffff82169050919050565b6000819050919050565b60005b83811015611e1c578082015181840152602081019050611e01565b83811115611e2b576000848401525b50505050565b6000611e3c82611df4565b91506000821415611e5057611e4f611ea4565b5b600182039050919050565b6000611e6682611df4565b91507fffffffffffffffffffffffffffffffffffffffffffffffffffffffffffffffff821415611e9957611e98611ea4565b5b600182019050919050565b7f4e487b7100000000000000000000000000000000000000000000000000000000600052601160045260246000fd5b6000601f19601f8301169050919050565b611eed81611d8a565b8114611ef857600080fd5b50565b611f0481611d9c565b8114611f0f57600080fd5b50565b611f1b81611da8565b8114611f2657600080fd5b50565b611f3281611df4565b8114611f3d57600080fd5b5056fea26469706673582212202bdc16d6c7f9d477bd055cccb0f122029b81be348c9a8c63b742121166988d1e64736f6c63430008000033",
  "immutableReferences": {},
  "source": "// SPDX-License-Identifier: MIT\npragma solidity ^0.8.0;\n\nimport \"./IERC721.sol\";\nimport \"../node_modules/@openzeppelin/contracts/access/Ownable.sol\";\nimport \"./IERC721Receiver.sol\";\n\ncontract KittyContract is IERC721, Ownable {\n    string public constant override name = \"CryptoKitties\";\n    string public constant override symbol = \"CRK\";\n    uint256 public constant CREATION_LIMIT_GEN0 = 10;\n    bytes4 private constant MAGIC_ERC721_RECIEVED =\n        bytes4(keccak256(\"onERC721Received(address,address,uint256,bytes)\"));\n\n    event Birth(\n        address owner,\n        uint256 kittenID,\n        uint256 mumID,\n        uint256 dadID,\n        uint256 genes\n    );\n\n    struct Kitty {\n        uint256 genes;\n        uint64 birthTime;\n        uint32 mumID;\n        uint32 dadID;\n        uint16 generation;\n    }\n\n    Kitty[] kitties;\n\n    mapping(uint256 => address) public kittyIndexToOwner;\n    mapping(address => uint256) ownershipTokenCount;\n    mapping(uint256 => address) public kittyIndexToApproved;\n\n    mapping(address => mapping(address => bool)) private _operatorApprovals;\n\n    uint256 public gen0Counter;\n\n    function approve(address _to, uint256 _tokenId) external override {\n        require(_owns(msg.sender, _tokenId));\n\n        _approve(_tokenId, _to);\n        emit Approval(msg.sender, _to, _tokenId);\n    }\n\n    function setApprovalForAll(address operator, bool approved)\n        public\n        override\n    {\n        require(operator != msg.sender);\n\n        _operatorApprovals[msg.sender][operator] = approved;\n        emit ApprovalForAll(msg.sender, operator, approved);\n    }\n\n    function getApproved(uint256 tokenId)\n        public\n        view\n        override\n        returns (address)\n    {\n        require(tokenId < kitties.length); //Token must exists\n\n        return kittyIndexToApproved[tokenId];\n    }\n\n    function isApprovedForAll(address owner, address operator)\n        public\n        view\n        override\n        returns (bool)\n    {\n        return _operatorApprovals[owner][operator];\n    }\n\n    function getKitty(uint256 _id)\n        external\n        view\n        returns (\n            uint256 genes,\n            uint256 birthtime,\n            uint256 mumID,\n            uint256 dadID,\n            uint256 generation\n        )\n    {\n        Kitty storage kitty = kitties[_id];\n\n        birthtime = uint256(kitty.birthTime);\n        mumID = uint256(kitty.mumID);\n        dadID = uint256(kitty.dadID);\n        generation = uint256(kitty.generation);\n        genes = kitty.genes;\n    }\n\n    function createKittyGen0(uint256 _genes)\n        public\n        onlyOwner\n        returns (uint256)\n    {\n        require(gen0Counter < CREATION_LIMIT_GEN0);\n\n        gen0Counter++;\n\n        //Gen0 have no owners, they are own by the contract\n        return _createKitty(0, 0, 0, _genes, msg.sender);\n    }\n\n    function _createKitty(\n        uint256 _mumID,\n        uint256 _dadID,\n        uint256 _generation,\n        uint256 _genes,\n        address _owner\n    ) private returns (uint256) {\n        Kitty memory _kitty = Kitty({\n            genes: _genes,\n            birthTime: uint64(block.timestamp),\n            mumID: uint32(_mumID),\n            dadID: uint32(_dadID),\n            generation: uint16(_generation)\n        });\n\n        kitties.push(_kitty);\n\n        uint256 newKittenID = kitties.length - 1;\n\n        _transfer(address(0), _owner, newKittenID);\n\n        emit Birth(_owner, newKittenID, _mumID, _dadID, _genes);\n\n        return newKittenID;\n    }\n\n    function balanceOf(address owner)\n        external\n        view\n        override\n        returns (uint256 balance)\n    {\n        return ownershipTokenCount[owner];\n    }\n\n    function totalSupply() external view override returns (uint256 total) {\n        return kitties.length;\n    }\n\n    // function name() external view returns (string memory tokenName) {\n    //     return name;\n    // }\n\n    // function symbol() external view returns (string memory tokenSymbol) {\n    //     return symbol;\n    // }\n\n    function ownerOf(uint256 _tokenId)\n        external\n        view\n        override\n        returns (address owner)\n    {\n        //require(kittyIndexToOwner[_tokenId], \"Token does not exist!\");\n        return kittyIndexToOwner[_tokenId];\n    }\n\n    function transfer(address _to, uint256 _tokenId) external override {\n        require(_to != address(0));\n        require(_to != address(this));\n        require(_owns(msg.sender, _tokenId));\n\n        _transfer(msg.sender, _to, _tokenId);\n    }\n\n    function _transfer(\n        address _from,\n        address _to,\n        uint256 _tokenId\n    ) internal {\n        ownershipTokenCount[_to]++;\n\n        kittyIndexToOwner[_tokenId] = _to;\n\n        //Decrease owner's kitty balance - unless it's a newly minted kitty\n        if (_from != address(0)) {\n            ownershipTokenCount[_from]--;\n            delete kittyIndexToApproved[_tokenId];\n        }\n\n        emit Transfer(_from, _to, _tokenId);\n    }\n\n    function _owns(address _claimant, uint256 _tokenId)\n        internal\n        view\n        returns (bool)\n    {\n        return kittyIndexToOwner[_tokenId] == _claimant;\n    }\n\n    function _approve(uint256 _tokenId, address _approved) internal {\n        kittyIndexToApproved[_tokenId] = _approved;\n    }\n\n    function _approvedFor(address _claimant, uint256 _tokenId)\n        internal\n        view\n        returns (bool)\n    {\n        kittyIndexToApproved[_tokenId] == _claimant;\n    }\n\n    function transferFrom(\n        address _from,\n        address _to,\n        uint256 _tokenId\n    ) external override {\n        require(_to != address(0), \"Transfer to zero-address is not possible!\");\n        require(\n            msg.sender == _from ||\n                _approvedFor(msg.sender, _tokenId) ||\n                isApprovedForAll(_from, msg.sender),\n            \"Only Owner, Operator or Approved Addresses can transfer!\"\n        );\n        require(\n            _owns(_from, _tokenId),\n            \"Owner address is not connected to this token!\"\n        );\n\n        require(_tokenId < kitties.length, \"This token does not exist!\");\n\n        _transfer(_from, _to, _tokenId);\n    }\n\n    function _safeTransfer(\n        address _from,\n        address _to,\n        uint256 _tokenId,\n        bytes memory _data\n    ) internal {\n        require(\n            _checkERC721Support(_from, _to, _tokenId, _data),\n            \"ERC721 NOT supported!\"\n        );\n\n        _transfer(_from, _to, _tokenId);\n    }\n\n    function _checkERC721Support(\n        address _from,\n        address _to,\n        uint256 _tokenId,\n        bytes memory _data\n    ) internal returns (bool) {\n        if (!_isContract(_to)) {\n            return true;\n        }\n\n        bytes4 returnData = IERC721Receiver(_to).onERC721Received(\n            msg.sender,\n            _from,\n            _tokenId,\n            _data\n        );\n\n        return returnData == MAGIC_ERC721_RECIEVED;\n    }\n\n    function _isContract(address _to) internal view returns (bool) {\n        uint32 size;\n        assembly {\n            size := extcodesize(_to)\n        }\n        return size > 0;\n    }\n\n    //Last 2 functions\n    //safeTransferFrom ERC721 Specification, without data\n    function safeTransferFrom(\n        address _from,\n        address _to,\n        uint256 _tokenId\n    ) public override {\n        require(_to != address(0));\n        require(_to != address(this));\n        require(_owns(msg.sender, _tokenId));\n\n        _safeTransfer(_from, _to, _tokenId, \"0\");\n    }\n\n    function safeTransferFrom(\n        address _from,\n        address _to,\n        uint256 _tokenId,\n        bytes calldata _data\n    ) public override {\n        require(_to != address(0));\n        require(_to != address(this));\n        require(_owns(msg.sender, _tokenId));\n\n        _safeTransfer(_from, _to, _tokenId, _data);\n    }\n}\n",
  "sourcePath": "/home/plamen/Documents/VSCode/Moralis/academy-kitties-template-master/contracts/KittyContract.sol",
  "compiler": {
    "name": "solc",
    "version": "0.8.0+commit.c7dfd78e.Emscripten.clang"
  },
  "schemaVersion": "3.4.8",
  "updatedAt": "2022-08-04T09:24:02.825Z",
  "networkType": "ethereum",
  "devdoc": {
    "kind": "dev",
    "methods": {
      "balanceOf(address)": {
        "details": "Returns the number of tokens in ``owner``'s account."
      },
      "owner()": {
        "details": "Returns the address of the current owner."
      },
      "renounceOwnership()": {
        "details": "Leaves the contract without owner. It will not be possible to call `onlyOwner` functions anymore. Can only be called by the current owner. NOTE: Renouncing ownership will leave the contract without an owner, thereby removing any functionality that is only available to the owner."
      },
      "safeTransferFrom(address,address,uint256)": {
        "details": "This works identically to the other function with an extra data parameter,  except this function just sets data to \"\".",
        "params": {
          "_from": "The current owner of the NFT",
          "_to": "The new owner",
          "_tokenId": "The NFT to transfer"
        }
      },
      "transferFrom(address,address,uint256)": {
        "details": "Throws unless `msg.sender` is the current owner, an authorized  operator, or the approved address for this NFT. Throws if `_from` is  not the current owner. Throws if `_to` is the zero address. Throws if  `_tokenId` is not a valid NFT.",
        "params": {
          "_from": "The current owner of the NFT",
          "_to": "The new owner",
          "_tokenId": "The NFT to transfer"
        }
      },
      "transferOwnership(address)": {
        "details": "Transfers ownership of the contract to a new account (`newOwner`). Can only be called by the current owner."
      }
    },
    "version": 1
  },
  "userdoc": {
    "kind": "user",
    "methods": {
      "safeTransferFrom(address,address,uint256)": {
        "notice": "Transfers the ownership of an NFT from one address to another address"
      },
      "transferFrom(address,address,uint256)": {
        "notice": "Transfer ownership of an NFT -- THE CALLER IS RESPONSIBLE  TO CONFIRM THAT `_to` IS CAPABLE OF RECEIVING NFTS OR ELSE  THEY MAY BE PERMANENTLY LOST"
      }
    },
    "version": 1
  }
}