{
  "contractName": "KittyContract",
  "abi": [
    {
      "anonymous": false,
      "inputs": [
        {
          "indexed": true,
          "internalType": "address",
          "name": "owner",
          "type": "address"
        },
        {
          "indexed": true,
          "internalType": "address",
          "name": "approved",
          "type": "address"
        },
        {
          "indexed": true,
          "internalType": "uint256",
          "name": "tokenId",
          "type": "uint256"
        }
      ],
      "name": "Approval",
      "type": "event"
    },
    {
      "anonymous": false,
      "inputs": [
        {
          "indexed": false,
          "internalType": "address",
          "name": "owner",
          "type": "address"
        },
        {
          "indexed": false,
          "internalType": "uint256",
          "name": "kittenID",
          "type": "uint256"
        },
        {
          "indexed": false,
          "internalType": "uint256",
          "name": "mumID",
          "type": "uint256"
        },
        {
          "indexed": false,
          "internalType": "uint256",
          "name": "dadID",
          "type": "uint256"
        },
        {
          "indexed": false,
          "internalType": "uint256",
          "name": "genes",
          "type": "uint256"
        }
      ],
      "name": "Birth",
      "type": "event"
    },
    {
      "anonymous": false,
      "inputs": [
        {
          "indexed": true,
          "internalType": "address",
          "name": "previousOwner",
          "type": "address"
        },
        {
          "indexed": true,
          "internalType": "address",
          "name": "newOwner",
          "type": "address"
        }
      ],
      "name": "OwnershipTransferred",
      "type": "event"
    },
    {
      "anonymous": false,
      "inputs": [
        {
          "indexed": true,
          "internalType": "address",
          "name": "from",
          "type": "address"
        },
        {
          "indexed": true,
          "internalType": "address",
          "name": "to",
          "type": "address"
        },
        {
          "indexed": true,
          "internalType": "uint256",
          "name": "tokenId",
          "type": "uint256"
        }
      ],
      "name": "Transfer",
      "type": "event"
    },
    {
      "inputs": [],
      "name": "CREATION_LIMIT_GEN0",
      "outputs": [
        {
          "internalType": "uint256",
          "name": "",
          "type": "uint256"
        }
      ],
      "stateMutability": "view",
      "type": "function",
      "constant": true
    },
    {
      "inputs": [],
      "name": "gen0Counter",
      "outputs": [
        {
          "internalType": "uint256",
          "name": "",
          "type": "uint256"
        }
      ],
      "stateMutability": "view",
      "type": "function",
      "constant": true
    },
    {
      "inputs": [
        {
          "internalType": "uint256",
          "name": "",
          "type": "uint256"
        }
      ],
      "name": "kittyIndexToOwner",
      "outputs": [
        {
          "internalType": "address",
          "name": "",
          "type": "address"
        }
      ],
      "stateMutability": "view",
      "type": "function",
      "constant": true
    },
    {
      "inputs": [],
      "name": "name",
      "outputs": [
        {
          "internalType": "string",
          "name": "",
          "type": "string"
        }
      ],
      "stateMutability": "view",
      "type": "function",
      "constant": true
    },
    {
      "inputs": [],
      "name": "owner",
      "outputs": [
        {
          "internalType": "address",
          "name": "",
          "type": "address"
        }
      ],
      "stateMutability": "view",
      "type": "function",
      "constant": true
    },
    {
      "inputs": [],
      "name": "renounceOwnership",
      "outputs": [],
      "stateMutability": "nonpayable",
      "type": "function"
    },
    {
      "inputs": [],
      "name": "symbol",
      "outputs": [
        {
          "internalType": "string",
          "name": "",
          "type": "string"
        }
      ],
      "stateMutability": "view",
      "type": "function",
      "constant": true
    },
    {
      "inputs": [
        {
          "internalType": "address",
          "name": "newOwner",
          "type": "address"
        }
      ],
      "name": "transferOwnership",
      "outputs": [],
      "stateMutability": "nonpayable",
      "type": "function"
    },
    {
      "inputs": [
        {
          "internalType": "uint256",
          "name": "_id",
          "type": "uint256"
        }
      ],
      "name": "getKitty",
      "outputs": [
        {
          "internalType": "uint256",
          "name": "genes",
          "type": "uint256"
        },
        {
          "internalType": "uint256",
          "name": "birthtime",
          "type": "uint256"
        },
        {
          "internalType": "uint256",
          "name": "mumID",
          "type": "uint256"
        },
        {
          "internalType": "uint256",
          "name": "dadID",
          "type": "uint256"
        },
        {
          "internalType": "uint256",
          "name": "generation",
          "type": "uint256"
        }
      ],
      "stateMutability": "view",
      "type": "function",
      "constant": true
    },
    {
      "inputs": [
        {
          "internalType": "uint256",
          "name": "_genes",
          "type": "uint256"
        }
      ],
      "name": "createKittyGen0",
      "outputs": [
        {
          "internalType": "uint256",
          "name": "",
          "type": "uint256"
        }
      ],
      "stateMutability": "nonpayable",
      "type": "function"
    },
    {
      "inputs": [
        {
          "internalType": "address",
          "name": "owner",
          "type": "address"
        }
      ],
      "name": "balanceOf",
      "outputs": [
        {
          "internalType": "uint256",
          "name": "balance",
          "type": "uint256"
        }
      ],
      "stateMutability": "view",
      "type": "function",
      "constant": true
    },
    {
      "inputs": [],
      "name": "totalSupply",
      "outputs": [
        {
          "internalType": "uint256",
          "name": "total",
          "type": "uint256"
        }
      ],
      "stateMutability": "view",
      "type": "function",
      "constant": true
    },
    {
      "inputs": [
        {
          "internalType": "uint256",
          "name": "_tokenId",
          "type": "uint256"
        }
      ],
      "name": "ownerOf",
      "outputs": [
        {
          "internalType": "address",
          "name": "owner",
          "type": "address"
        }
      ],
      "stateMutability": "view",
      "type": "function",
      "constant": true
    },
    {
      "inputs": [
        {
          "internalType": "address",
          "name": "_to",
          "type": "address"
        },
        {
          "internalType": "uint256",
          "name": "_tokenId",
          "type": "uint256"
        }
      ],
      "name": "transfer",
      "outputs": [],
      "stateMutability": "nonpayable",
      "type": "function"
    }
  ],
  "bytecode": "0x608060405234801561001057600080fd5b5061002d61002261003260201b60201c565b61003a60201b60201c565b6100fe565b600033905090565b60008060009054906101000a900473ffffffffffffffffffffffffffffffffffffffff169050816000806101000a81548173ffffffffffffffffffffffffffffffffffffffff021916908373ffffffffffffffffffffffffffffffffffffffff1602179055508173ffffffffffffffffffffffffffffffffffffffff168173ffffffffffffffffffffffffffffffffffffffff167f8be0079c531659141344cd1fd0a4f28419497f9722a3daafe3b4186f6b6457e060405160405180910390a35050565b6110318061010d6000396000f3fe608060405234801561001057600080fd5b50600436106100ea5760003560e01c8063a45f4bfc1161008c578063d5a776ca11610066578063d5a776ca1461023b578063e98b7f4d1461026b578063ef5e94aa1461029f578063f2fde38b146102bd576100ea565b8063a45f4bfc146101d1578063a9059cbb14610201578063b48343301461021d576100ea565b806370a08231116100c857806370a082311461015b578063715018a61461018b5780638da5cb5b1461019557806395d89b41146101b3576100ea565b806306fdde03146100ef57806318160ddd1461010d5780636352211e1461012b575b600080fd5b6100f76102d9565b6040516101049190610d8b565b60405180910390f35b610115610312565b6040516101229190610ded565b60405180910390f35b61014560048036038101906101409190610bf7565b61031f565b6040516101529190610d1d565b60405180910390f35b61017560048036038101906101709190610b92565b61035c565b6040516101829190610ded565b60405180910390f35b6101936103a5565b005b61019d6103b9565b6040516101aa9190610d1d565b60405180910390f35b6101bb6103e2565b6040516101c89190610d8b565b60405180910390f35b6101eb60048036038101906101e69190610bf7565b61041b565b6040516101f89190610d1d565b60405180910390f35b61021b60048036038101906102169190610bbb565b61044e565b005b6102256104e3565b6040516102329190610ded565b60405180910390f35b61025560048036038101906102509190610bf7565b6104e8565b6040516102629190610ded565b60405180910390f35b61028560048036038101906102809190610bf7565b61052f565b604051610296959493929190610e08565b60405180910390f35b6102a761060b565b6040516102b49190610ded565b60405180910390f35b6102d760048036038101906102d29190610b92565b610611565b005b6040518060400160405280600d81526020017f43727970746f4b6974746965730000000000000000000000000000000000000081525081565b6000600180549050905090565b60006002600083815260200190815260200160002060009054906101000a900473ffffffffffffffffffffffffffffffffffffffff169050919050565b6000600360008373ffffffffffffffffffffffffffffffffffffffff1673ffffffffffffffffffffffffffffffffffffffff168152602001908152602001600020549050919050565b6103ad610695565b6103b76000610713565b565b60008060009054906101000a900473ffffffffffffffffffffffffffffffffffffffff16905090565b6040518060400160405280600381526020017f43524b000000000000000000000000000000000000000000000000000000000081525081565b60026020528060005260406000206000915054906101000a900473ffffffffffffffffffffffffffffffffffffffff1681565b600073ffffffffffffffffffffffffffffffffffffffff168273ffffffffffffffffffffffffffffffffffffffff16141561048857600080fd5b3073ffffffffffffffffffffffffffffffffffffffff168273ffffffffffffffffffffffffffffffffffffffff1614156104c157600080fd5b6104cb33826107d7565b6104d457600080fd5b6104df338383610843565b5050565b600a81565b60006104f2610695565b600a6004541061050157600080fd5b6004600081548092919061051490610f44565b9190505550610528600080600085336109d4565b9050919050565b60008060008060008060018781548110610572577f4e487b7100000000000000000000000000000000000000000000000000000000600052603260045260246000fd5b906000526020600020906002020190508060010160009054906101000a900467ffffffffffffffff1667ffffffffffffffff1694508060010160089054906101000a900463ffffffff1663ffffffff16935080600101600c9054906101000a900463ffffffff1663ffffffff1692508060010160109054906101000a900461ffff1661ffff169150806000015495505091939590929450565b60045481565b610619610695565b600073ffffffffffffffffffffffffffffffffffffffff168173ffffffffffffffffffffffffffffffffffffffff161415610689576040517f08c379a000000000000000000000000000000000000000000000000000000000815260040161068090610dad565b60405180910390fd5b61069281610713565b50565b61069d610b60565b73ffffffffffffffffffffffffffffffffffffffff166106bb6103b9565b73ffffffffffffffffffffffffffffffffffffffff1614610711576040517f08c379a000000000000000000000000000000000000000000000000000000000815260040161070890610dcd565b60405180910390fd5b565b60008060009054906101000a900473ffffffffffffffffffffffffffffffffffffffff169050816000806101000a81548173ffffffffffffffffffffffffffffffffffffffff021916908373ffffffffffffffffffffffffffffffffffffffff1602179055508173ffffffffffffffffffffffffffffffffffffffff168173ffffffffffffffffffffffffffffffffffffffff167f8be0079c531659141344cd1fd0a4f28419497f9722a3daafe3b4186f6b6457e060405160405180910390a35050565b60008273ffffffffffffffffffffffffffffffffffffffff166002600084815260200190815260200160002060009054906101000a900473ffffffffffffffffffffffffffffffffffffffff1673ffffffffffffffffffffffffffffffffffffffff1614905092915050565b600360008373ffffffffffffffffffffffffffffffffffffffff1673ffffffffffffffffffffffffffffffffffffffff168152602001908152602001600020600081548092919061089390610f44565b9190505550816002600083815260200190815260200160002060006101000a81548173ffffffffffffffffffffffffffffffffffffffff021916908373ffffffffffffffffffffffffffffffffffffffff160217905550600073ffffffffffffffffffffffffffffffffffffffff168373ffffffffffffffffffffffffffffffffffffffff161461097457600360008473ffffffffffffffffffffffffffffffffffffffff1673ffffffffffffffffffffffffffffffffffffffff168152602001908152602001600020600081548092919061096e90610f1a565b91905055505b808273ffffffffffffffffffffffffffffffffffffffff168473ffffffffffffffffffffffffffffffffffffffff167fddf252ad1be2c89b69c2b068fc378daa952ba7f163c4a11628f55a4df523b3ef60405160405180910390a4505050565b6000806040518060a001604052808581526020014267ffffffffffffffff1681526020018863ffffffff1681526020018763ffffffff1681526020018661ffff16815250905060018190806001815401808255809150506001900390600052602060002090600202016000909190919091506000820151816000015560208201518160010160006101000a81548167ffffffffffffffff021916908367ffffffffffffffff16021790555060408201518160010160086101000a81548163ffffffff021916908363ffffffff160217905550606082015181600101600c6101000a81548163ffffffff021916908363ffffffff16021790555060808201518160010160106101000a81548161ffff021916908361ffff1602179055505050600060018080549050610b059190610e77565b9050610b1360008583610843565b7f0a5311bd2a6608f08a180df2ee7c5946819a649b204b554bb8e39825b2c50ad584828a8a89604051610b4a959493929190610d38565b60405180910390a1809250505095945050505050565b600033905090565b600081359050610b7781610fcd565b92915050565b600081359050610b8c81610fe4565b92915050565b600060208284031215610ba457600080fd5b6000610bb284828501610b68565b91505092915050565b60008060408385031215610bce57600080fd5b6000610bdc85828601610b68565b9250506020610bed85828601610b7d565b9150509250929050565b600060208284031215610c0957600080fd5b6000610c1784828501610b7d565b91505092915050565b610c2981610eab565b82525050565b6000610c3a82610e5b565b610c448185610e66565b9350610c54818560208601610ee7565b610c5d81610fbc565b840191505092915050565b6000610c75602683610e66565b91507f4f776e61626c653a206e6577206f776e657220697320746865207a65726f206160008301527f64647265737300000000000000000000000000000000000000000000000000006020830152604082019050919050565b6000610cdb602083610e66565b91507f4f776e61626c653a2063616c6c6572206973206e6f7420746865206f776e65726000830152602082019050919050565b610d1781610edd565b82525050565b6000602082019050610d326000830184610c20565b92915050565b600060a082019050610d4d6000830188610c20565b610d5a6020830187610d0e565b610d676040830186610d0e565b610d746060830185610d0e565b610d816080830184610d0e565b9695505050505050565b60006020820190508181036000830152610da58184610c2f565b905092915050565b60006020820190508181036000830152610dc681610c68565b9050919050565b60006020820190508181036000830152610de681610cce565b9050919050565b6000602082019050610e026000830184610d0e565b92915050565b600060a082019050610e1d6000830188610d0e565b610e2a6020830187610d0e565b610e376040830186610d0e565b610e446060830185610d0e565b610e516080830184610d0e565b9695505050505050565b600081519050919050565b600082825260208201905092915050565b6000610e8282610edd565b9150610e8d83610edd565b925082821015610ea057610e9f610f8d565b5b828203905092915050565b6000610eb682610ebd565b9050919050565b600073ffffffffffffffffffffffffffffffffffffffff82169050919050565b6000819050919050565b60005b83811015610f05578082015181840152602081019050610eea565b83811115610f14576000848401525b50505050565b6000610f2582610edd565b91506000821415610f3957610f38610f8d565b5b600182039050919050565b6000610f4f82610edd565b91507fffffffffffffffffffffffffffffffffffffffffffffffffffffffffffffffff821415610f8257610f81610f8d565b5b600182019050919050565b7f4e487b7100000000000000000000000000000000000000000000000000000000600052601160045260246000fd5b6000601f19601f8301169050919050565b610fd681610eab565b8114610fe157600080fd5b50565b610fed81610edd565b8114610ff857600080fd5b5056fea2646970667358221220175129fc40d12fa96f7525cca1d6961e44a3f7b973acaa3899d48350fb0d6cdc64736f6c63430008000033",
  "immutableReferences": {},
  "source": "// SPDX-License-Identifier: MIT\npragma solidity ^0.8.0;\n\nimport \"./IERC721.sol\";\nimport \"../node_modules/@openzeppelin/contracts/access/Ownable.sol\";\n\ncontract KittyContract is IERC721, Ownable {\n    string public constant override name = \"CryptoKitties\";\n    string public constant override symbol = \"CRK\";\n    uint256 public constant CREATION_LIMIT_GEN0 = 10;\n\n    event Birth(\n        address owner,\n        uint256 kittenID,\n        uint256 mumID,\n        uint256 dadID,\n        uint256 genes\n    );\n\n    struct Kitty {\n        uint256 genes;\n        uint64 birthTime;\n        uint32 mumID;\n        uint32 dadID;\n        uint16 generation;\n    }\n\n    Kitty[] kitties;\n\n    mapping(uint256 => address) public kittyIndexToOwner;\n    mapping(address => uint256) ownershipTokenCount;\n\n    uint256 public gen0Counter;\n\n    function getKitty(uint256 _id)\n        external\n        view\n        returns (\n            uint256 genes,\n            uint256 birthtime,\n            uint256 mumID,\n            uint256 dadID,\n            uint256 generation\n        )\n    {\n        Kitty storage kitty = kitties[_id];\n\n        birthtime = uint256(kitty.birthTime);\n        mumID = uint256(kitty.mumID);\n        dadID = uint256(kitty.dadID);\n        generation = uint256(kitty.generation);\n        genes = kitty.genes;\n    }\n\n    function createKittyGen0(uint256 _genes)\n        public\n        onlyOwner\n        returns (uint256)\n    {\n        require(gen0Counter < CREATION_LIMIT_GEN0);\n\n        gen0Counter++;\n\n        //Gen0 have no owners, they are own by the contract\n        return _createKitty(0, 0, 0, _genes, msg.sender);\n    }\n\n    function _createKitty(\n        uint256 _mumID,\n        uint256 _dadID,\n        uint256 _generation,\n        uint256 _genes,\n        address _owner\n    ) private returns (uint256) {\n        Kitty memory _kitty = Kitty({\n            genes: _genes,\n            birthTime: uint64(block.timestamp),\n            mumID: uint32(_mumID),\n            dadID: uint32(_dadID),\n            generation: uint16(_generation)\n        });\n\n        kitties.push(_kitty);\n\n        uint256 newKittenID = kitties.length - 1;\n\n        _transfer(address(0), _owner, newKittenID);\n\n        emit Birth(_owner, newKittenID, _mumID, _dadID, _genes);\n\n        return newKittenID;\n    }\n\n    function balanceOf(address owner)\n        external\n        view\n        override\n        returns (uint256 balance)\n    {\n        return ownershipTokenCount[owner];\n    }\n\n    function totalSupply() external view override returns (uint256 total) {\n        return kitties.length;\n    }\n\n    // function name() external view returns (string memory tokenName) {\n    //     return name;\n    // }\n\n    // function symbol() external view returns (string memory tokenSymbol) {\n    //     return symbol;\n    // }\n\n    function ownerOf(uint256 _tokenId)\n        external\n        view\n        override\n        returns (address owner)\n    {\n        //require(kittyIndexToOwner[_tokenId], \"Token does not exist!\");\n        return kittyIndexToOwner[_tokenId];\n    }\n\n    function transfer(address _to, uint256 _tokenId) external override {\n        require(_to != address(0));\n        require(_to != address(this));\n        require(_owns(msg.sender, _tokenId));\n\n        _transfer(msg.sender, _to, _tokenId);\n    }\n\n    function _transfer(\n        address _from,\n        address _to,\n        uint256 _tokenId\n    ) internal {\n        ownershipTokenCount[_to]++;\n\n        kittyIndexToOwner[_tokenId] = _to;\n\n        //Decrease owner's kitty balance - unless it's a newly minted kitty\n        if (_from != address(0)) {\n            ownershipTokenCount[_from]--;\n        }\n\n        emit Transfer(_from, _to, _tokenId);\n    }\n\n    function _owns(address _claimant, uint256 _tokenId)\n        internal\n        view\n        returns (bool)\n    {\n        return kittyIndexToOwner[_tokenId] == _claimant;\n    }\n}\n",
  "sourcePath": "/home/plamen/Documents/VSCode/Moralis/academy-kitties-template-master/contracts/KittyContract.sol",
  "compiler": {
    "name": "solc",
    "version": "0.8.0+commit.c7dfd78e.Emscripten.clang"
  },
  "schemaVersion": "3.4.8",
  "updatedAt": "2022-07-31T06:00:51.796Z",
  "networkType": "ethereum",
  "devdoc": {
    "kind": "dev",
    "methods": {
      "balanceOf(address)": {
        "details": "Returns the number of tokens in ``owner``'s account."
      },
      "owner()": {
        "details": "Returns the address of the current owner."
      },
      "renounceOwnership()": {
        "details": "Leaves the contract without owner. It will not be possible to call `onlyOwner` functions anymore. Can only be called by the current owner. NOTE: Renouncing ownership will leave the contract without an owner, thereby removing any functionality that is only available to the owner."
      },
      "transferOwnership(address)": {
        "details": "Transfers ownership of the contract to a new account (`newOwner`). Can only be called by the current owner."
      }
    },
    "version": 1
  },
  "userdoc": {
    "kind": "user",
    "methods": {},
    "version": 1
  }
}