{
  "contractName": "KittyContract",
  "abi": [
    {
      "anonymous": false,
      "inputs": [
        {
          "indexed": true,
          "internalType": "address",
          "name": "owner",
          "type": "address"
        },
        {
          "indexed": true,
          "internalType": "address",
          "name": "approved",
          "type": "address"
        },
        {
          "indexed": true,
          "internalType": "uint256",
          "name": "tokenId",
          "type": "uint256"
        }
      ],
      "name": "Approval",
      "type": "event"
    },
    {
      "anonymous": false,
      "inputs": [
        {
          "indexed": true,
          "internalType": "address",
          "name": "from",
          "type": "address"
        },
        {
          "indexed": true,
          "internalType": "address",
          "name": "to",
          "type": "address"
        },
        {
          "indexed": true,
          "internalType": "uint256",
          "name": "tokenId",
          "type": "uint256"
        }
      ],
      "name": "Transfer",
      "type": "event"
    },
    {
      "inputs": [
        {
          "internalType": "uint256",
          "name": "",
          "type": "uint256"
        }
      ],
      "name": "kittyIndexToOwner",
      "outputs": [
        {
          "internalType": "address",
          "name": "",
          "type": "address"
        }
      ],
      "stateMutability": "view",
      "type": "function",
      "constant": true
    },
    {
      "inputs": [],
      "name": "name",
      "outputs": [
        {
          "internalType": "string",
          "name": "",
          "type": "string"
        }
      ],
      "stateMutability": "view",
      "type": "function",
      "constant": true
    },
    {
      "inputs": [],
      "name": "symbol",
      "outputs": [
        {
          "internalType": "string",
          "name": "",
          "type": "string"
        }
      ],
      "stateMutability": "view",
      "type": "function",
      "constant": true
    },
    {
      "inputs": [
        {
          "internalType": "address",
          "name": "owner",
          "type": "address"
        }
      ],
      "name": "balanceOf",
      "outputs": [
        {
          "internalType": "uint256",
          "name": "balance",
          "type": "uint256"
        }
      ],
      "stateMutability": "view",
      "type": "function",
      "constant": true
    },
    {
      "inputs": [],
      "name": "totalSupply",
      "outputs": [
        {
          "internalType": "uint256",
          "name": "total",
          "type": "uint256"
        }
      ],
      "stateMutability": "view",
      "type": "function",
      "constant": true
    },
    {
      "inputs": [
        {
          "internalType": "uint256",
          "name": "_tokenId",
          "type": "uint256"
        }
      ],
      "name": "ownerOf",
      "outputs": [
        {
          "internalType": "address",
          "name": "owner",
          "type": "address"
        }
      ],
      "stateMutability": "view",
      "type": "function",
      "constant": true
    },
    {
      "inputs": [
        {
          "internalType": "address",
          "name": "_to",
          "type": "address"
        },
        {
          "internalType": "uint256",
          "name": "_tokenId",
          "type": "uint256"
        }
      ],
      "name": "transfer",
      "outputs": [],
      "stateMutability": "nonpayable",
      "type": "function"
    }
  ],
  "bytecode": "0x608060405234801561001057600080fd5b5061085a806100206000396000f3fe608060405234801561001057600080fd5b506004361061007d5760003560e01c806370a082311161005b57806370a08231146100ee57806395d89b411461011e578063a45f4bfc1461013c578063a9059cbb1461016c5761007d565b806306fdde031461008257806318160ddd146100a05780636352211e146100be575b600080fd5b61008a610188565b604051610097919061067b565b60405180910390f35b6100a86101c1565b6040516100b5919061069d565b60405180910390f35b6100d860048036038101906100d391906105e0565b6101cd565b6040516100e59190610660565b60405180910390f35b6101086004803603810190610103919061057b565b61020a565b604051610115919061069d565b60405180910390f35b610126610253565b604051610133919061067b565b60405180910390f35b610156600480360381019061015191906105e0565b61028c565b6040516101639190610660565b60405180910390f35b610186600480360381019061018191906105a4565b6102bf565b005b6040518060400160405280600d81526020017f43727970746f4b6974746965730000000000000000000000000000000000000081525081565b60008080549050905090565b60006001600083815260200190815260200160002060009054906101000a900473ffffffffffffffffffffffffffffffffffffffff169050919050565b6000600260008373ffffffffffffffffffffffffffffffffffffffff1673ffffffffffffffffffffffffffffffffffffffff168152602001908152602001600020549050919050565b6040518060400160405280600381526020017f43524b000000000000000000000000000000000000000000000000000000000081525081565b60016020528060005260406000206000915054906101000a900473ffffffffffffffffffffffffffffffffffffffff1681565b600073ffffffffffffffffffffffffffffffffffffffff168273ffffffffffffffffffffffffffffffffffffffff1614156102f957600080fd5b3073ffffffffffffffffffffffffffffffffffffffff168273ffffffffffffffffffffffffffffffffffffffff16141561033257600080fd5b61033c3382610354565b61034557600080fd5b6103503383836103c0565b5050565b60008273ffffffffffffffffffffffffffffffffffffffff166001600084815260200190815260200160002060009054906101000a900473ffffffffffffffffffffffffffffffffffffffff1673ffffffffffffffffffffffffffffffffffffffff1614905092915050565b600260008373ffffffffffffffffffffffffffffffffffffffff1673ffffffffffffffffffffffffffffffffffffffff16815260200190815260200160002060008154809291906104109061076d565b9190505550816001600083815260200190815260200160002060006101000a81548173ffffffffffffffffffffffffffffffffffffffff021916908373ffffffffffffffffffffffffffffffffffffffff160217905550600073ffffffffffffffffffffffffffffffffffffffff168373ffffffffffffffffffffffffffffffffffffffff16146104f157600260008473ffffffffffffffffffffffffffffffffffffffff1673ffffffffffffffffffffffffffffffffffffffff16815260200190815260200160002060008154809291906104eb90610743565b91905055505b808273ffffffffffffffffffffffffffffffffffffffff168473ffffffffffffffffffffffffffffffffffffffff167fddf252ad1be2c89b69c2b068fc378daa952ba7f163c4a11628f55a4df523b3ef60405160405180910390a4505050565b600081359050610560816107f6565b92915050565b6000813590506105758161080d565b92915050565b60006020828403121561058d57600080fd5b600061059b84828501610551565b91505092915050565b600080604083850312156105b757600080fd5b60006105c585828601610551565b92505060206105d685828601610566565b9150509250929050565b6000602082840312156105f257600080fd5b600061060084828501610566565b91505092915050565b610612816106d4565b82525050565b6000610623826106b8565b61062d81856106c3565b935061063d818560208601610710565b610646816107e5565b840191505092915050565b61065a81610706565b82525050565b60006020820190506106756000830184610609565b92915050565b600060208201905081810360008301526106958184610618565b905092915050565b60006020820190506106b26000830184610651565b92915050565b600081519050919050565b600082825260208201905092915050565b60006106df826106e6565b9050919050565b600073ffffffffffffffffffffffffffffffffffffffff82169050919050565b6000819050919050565b60005b8381101561072e578082015181840152602081019050610713565b8381111561073d576000848401525b50505050565b600061074e82610706565b91506000821415610762576107616107b6565b5b600182039050919050565b600061077882610706565b91507fffffffffffffffffffffffffffffffffffffffffffffffffffffffffffffffff8214156107ab576107aa6107b6565b5b600182019050919050565b7f4e487b7100000000000000000000000000000000000000000000000000000000600052601160045260246000fd5b6000601f19601f8301169050919050565b6107ff816106d4565b811461080a57600080fd5b50565b61081681610706565b811461082157600080fd5b5056fea264697066735822122084057996fcb66a5d319961cf2ae1f50fcbc303b7d9da7e5cbde432e3c1969ec964736f6c63430008000033",
  "immutableReferences": {},
  "source": "// SPDX-License-Identifier: MIT\npragma solidity ^0.8.0;\n\nimport \"./IERC721.sol\";\n\ncontract KittyContract is IERC721 {\n    string public constant override name = \"CryptoKitties\";\n    string public constant override symbol = \"CRK\";\n\n    struct Kitty {\n        uint256 genes;\n        uint64 birthTime;\n        uint32 mumID;\n        uint32 dadID;\n        uint16 generation;\n    }\n\n    Kitty[] kitties;\n\n    mapping(uint256 => address) public kittyIndexToOwner;\n    mapping(address => uint256) ownershipTokenCount;\n\n    function balanceOf(address owner)\n        external\n        view\n        override\n        returns (uint256 balance)\n    {\n        return ownershipTokenCount[owner];\n    }\n\n    function totalSupply() external view override returns (uint256 total) {\n        return kitties.length;\n    }\n\n    // function name() external view returns (string memory tokenName) {\n    //     return name;\n    // }\n\n    // function symbol() external view returns (string memory tokenSymbol) {\n    //     return symbol;\n    // }\n\n    function ownerOf(uint256 _tokenId)\n        external\n        view\n        override\n        returns (address owner)\n    {\n        //require(kittyIndexToOwner[_tokenId], \"Token does not exist!\");\n        return kittyIndexToOwner[_tokenId];\n    }\n\n    function transfer(address _to, uint256 _tokenId) external override {\n        require(_to != address(0));\n        require(_to != address(this));\n        require(_owns(msg.sender, _tokenId));\n\n        _transfer(msg.sender, _to, _tokenId);\n    }\n\n    function _transfer(\n        address _from,\n        address _to,\n        uint256 _tokenId\n    ) internal {\n        ownershipTokenCount[_to]++;\n\n        kittyIndexToOwner[_tokenId] = _to;\n\n        //Decrease owner's kitty balance - unless it's a newly minted kitty\n        if (_from != address(0)) {\n            ownershipTokenCount[_from]--;\n        }\n\n        emit Transfer(_from, _to, _tokenId);\n    }\n\n    function _owns(address _claimant, uint256 _tokenId)\n        internal\n        view\n        returns (bool)\n    {\n        return kittyIndexToOwner[_tokenId] == _claimant;\n    }\n}\n",
  "sourcePath": "/home/plamen/Documents/VSCode/Moralis/academy-kitties-template-master/contracts/KittyContract.sol",
  "compiler": {
    "name": "solc",
    "version": "0.8.0+commit.c7dfd78e.Emscripten.clang"
  },
  "schemaVersion": "3.4.8",
  "updatedAt": "2022-07-24T10:14:30.305Z",
  "networkType": "ethereum",
  "devdoc": {
    "kind": "dev",
    "methods": {
      "balanceOf(address)": {
        "details": "Returns the number of tokens in ``owner``'s account."
      }
    },
    "version": 1
  },
  "userdoc": {
    "kind": "user",
    "methods": {},
    "version": 1
  }
}