{
  "contractName": "KittyMarketplace",
  "abi": [
    {
      "inputs": [
        {
          "internalType": "address",
          "name": "_kittyContractAddress",
          "type": "address"
        }
      ],
      "stateMutability": "nonpayable",
      "type": "constructor"
    },
    {
      "anonymous": false,
      "inputs": [
        {
          "indexed": false,
          "internalType": "string",
          "name": "TxType",
          "type": "string"
        },
        {
          "indexed": false,
          "internalType": "address",
          "name": "owner",
          "type": "address"
        },
        {
          "indexed": false,
          "internalType": "uint256",
          "name": "tokenId",
          "type": "uint256"
        }
      ],
      "name": "MarketTransaction",
      "type": "event"
    },
    {
      "anonymous": false,
      "inputs": [
        {
          "indexed": true,
          "internalType": "address",
          "name": "previousOwner",
          "type": "address"
        },
        {
          "indexed": true,
          "internalType": "address",
          "name": "newOwner",
          "type": "address"
        }
      ],
      "name": "OwnershipTransferred",
      "type": "event"
    },
    {
      "inputs": [],
      "name": "owner",
      "outputs": [
        {
          "internalType": "address",
          "name": "",
          "type": "address"
        }
      ],
      "stateMutability": "view",
      "type": "function"
    },
    {
      "inputs": [],
      "name": "renounceOwnership",
      "outputs": [],
      "stateMutability": "nonpayable",
      "type": "function"
    },
    {
      "inputs": [
        {
          "internalType": "address",
          "name": "newOwner",
          "type": "address"
        }
      ],
      "name": "transferOwnership",
      "outputs": [],
      "stateMutability": "nonpayable",
      "type": "function"
    },
    {
      "inputs": [
        {
          "internalType": "address",
          "name": "_kittyContractAddress",
          "type": "address"
        }
      ],
      "name": "setKittyContract",
      "outputs": [],
      "stateMutability": "nonpayable",
      "type": "function"
    },
    {
      "inputs": [
        {
          "internalType": "uint256",
          "name": "_tokenId",
          "type": "uint256"
        }
      ],
      "name": "getOffer",
      "outputs": [
        {
          "internalType": "address",
          "name": "sller",
          "type": "address"
        },
        {
          "internalType": "uint256",
          "name": "price",
          "type": "uint256"
        },
        {
          "internalType": "uint256",
          "name": "index",
          "type": "uint256"
        },
        {
          "internalType": "uint256",
          "name": "tokenId",
          "type": "uint256"
        },
        {
          "internalType": "bool",
          "name": "active",
          "type": "bool"
        }
      ],
      "stateMutability": "view",
      "type": "function"
    },
    {
      "inputs": [],
      "name": "getAllTokenOnSale",
      "outputs": [
        {
          "internalType": "uint256[]",
          "name": "listOfOffers",
          "type": "uint256[]"
        }
      ],
      "stateMutability": "view",
      "type": "function"
    },
    {
      "inputs": [
        {
          "internalType": "uint256",
          "name": "_price",
          "type": "uint256"
        },
        {
          "internalType": "uint256",
          "name": "_tokenId",
          "type": "uint256"
        }
      ],
      "name": "setOffer",
      "outputs": [],
      "stateMutability": "nonpayable",
      "type": "function"
    },
    {
      "inputs": [
        {
          "internalType": "uint256",
          "name": "_tokenId",
          "type": "uint256"
        }
      ],
      "name": "removeOffer",
      "outputs": [],
      "stateMutability": "nonpayable",
      "type": "function"
    },
    {
      "inputs": [
        {
          "internalType": "uint256",
          "name": "_tokenId",
          "type": "uint256"
        }
      ],
      "name": "buyKitty",
      "outputs": [],
      "stateMutability": "payable",
      "type": "function"
    }
  ],
  "bytecode": "0x60806040523480156200001157600080fd5b5060405162001e4338038062001e43833981810160405281019062000037919062000260565b620000576200004b6200006f60201b60201c565b6200007760201b60201c565b62000068816200013b60201b60201c565b506200034f565b600033905090565b60008060009054906101000a900473ffffffffffffffffffffffffffffffffffffffff169050816000806101000a81548173ffffffffffffffffffffffffffffffffffffffff021916908373ffffffffffffffffffffffffffffffffffffffff1602179055508173ffffffffffffffffffffffffffffffffffffffff168173ffffffffffffffffffffffffffffffffffffffff167f8be0079c531659141344cd1fd0a4f28419497f9722a3daafe3b4186f6b6457e060405160405180910390a35050565b6200014b6200018f60201b60201c565b80600160006101000a81548173ffffffffffffffffffffffffffffffffffffffff021916908373ffffffffffffffffffffffffffffffffffffffff16021790555050565b6200019f6200006f60201b60201c565b73ffffffffffffffffffffffffffffffffffffffff16620001c56200022060201b60201c565b73ffffffffffffffffffffffffffffffffffffffff16146200021e576040517f08c379a00000000000000000000000000000000000000000000000000000000081526004016200021590620002ce565b60405180910390fd5b565b60008060009054906101000a900473ffffffffffffffffffffffffffffffffffffffff16905090565b6000815190506200025a8162000335565b92915050565b6000602082840312156200027357600080fd5b6000620002838482850162000249565b91505092915050565b60006200029b602083620002f0565b91507f4f776e61626c653a2063616c6c6572206973206e6f7420746865206f776e65726000830152602082019050919050565b60006020820190508181036000830152620002e9816200028c565b9050919050565b600082825260208201905092915050565b60006200030e8262000315565b9050919050565b600073ffffffffffffffffffffffffffffffffffffffff82169050919050565b620003408162000301565b81146200034c57600080fd5b50565b611ae4806200035f6000396000f3fe6080604052600436106100865760003560e01c80638da5cb5b116100595780638da5cb5b14610137578063941b055b1461016257806395a0f9c71461018b578063ae5310f6146101b4578063f2fde38b146101d057610086565b80634579268a1461008b57806349b3709f146100cc57806362b7f94e146100f7578063715018a614610120575b600080fd5b34801561009757600080fd5b506100b260048036038101906100ad91906111a0565b6101f9565b6040516100c39594939291906116e5565b60405180910390f35b3480156100d857600080fd5b506100e1610271565b6040516100ee9190611738565b60405180910390f35b34801561010357600080fd5b5061011e60048036038101906101199190611125565b610490565b005b34801561012c57600080fd5b506101356104dc565b005b34801561014357600080fd5b5061014c6104f0565b604051610159919061166a565b60405180910390f35b34801561016e57600080fd5b50610189600480360381019061018491906111c9565b610519565b005b34801561019757600080fd5b506101b260048036038101906101ad91906111a0565b61088e565b005b6101ce60048036038101906101c991906111a0565b610abf565b005b3480156101dc57600080fd5b506101f760048036038101906101f29190611125565b610e20565b005b6000806000806000806003600088815260200190815260200160002090508060000160009054906101000a900473ffffffffffffffffffffffffffffffffffffffff168160010154826002015483600301548460040160009054906101000a900460ff16955095509550955095505091939590929450565b60606000600280549050905060008114156102fe57600067ffffffffffffffff8111156102c7577f4e487b7100000000000000000000000000000000000000000000000000000000600052604160045260246000fd5b6040519080825280602002602001820160405280156102f55781602001602082028036833780820191505090505b5091505061048d565b60008167ffffffffffffffff811115610340577f4e487b7100000000000000000000000000000000000000000000000000000000600052604160045260246000fd5b60405190808252806020026020018201604052801561036e5781602001602082028036833780820191505090505b50905060005b828110156104865760011515600282815481106103ba577f4e487b7100000000000000000000000000000000000000000000000000000000600052603260045260246000fd5b906000526020600020906005020160040160009054906101000a900460ff1615151415610473576002818154811061041b577f4e487b7100000000000000000000000000000000000000000000000000000000600052603260045260246000fd5b906000526020600020906005020160030154828281518110610466577f4e487b7100000000000000000000000000000000000000000000000000000000600052603260045260246000fd5b6020026020010181815250505b808061047e906119f1565b915050610374565b8193505050505b90565b610498610ea4565b80600160006101000a81548173ffffffffffffffffffffffffffffffffffffffff021916908373ffffffffffffffffffffffffffffffffffffffff16021790555050565b6104e4610ea4565b6104ee6000610f22565b565b60008060009054906101000a900473ffffffffffffffffffffffffffffffffffffffff16905090565b6105233382610fe6565b610562576040517f08c379a000000000000000000000000000000000000000000000000000000000815260040161055990611832565b60405180910390fd5b600015156003600083815260200190815260200160002060040160009054906101000a900460ff161515146105cc576040517f08c379a00000000000000000000000000000000000000000000000000000000081526004016105c39061179a565b60405180910390fd5b600160009054906101000a900473ffffffffffffffffffffffffffffffffffffffff1673ffffffffffffffffffffffffffffffffffffffff1663e985e9c533306040518363ffffffff1660e01b81526004016106299291906116bc565b60206040518083038186803b15801561064157600080fd5b505afa158015610655573d6000803e3d6000fd5b505050506040513d601f19601f820116820180604052508101906106799190611177565b6106b8576040517f08c379a00000000000000000000000000000000000000000000000000000000081526004016106af906118ee565b60405180910390fd5b60006040518060a001604052803373ffffffffffffffffffffffffffffffffffffffff1681526020018481526020016002805490508152602001838152602001600115158152509050806003600084815260200190815260200160002060008201518160000160006101000a81548173ffffffffffffffffffffffffffffffffffffffff021916908373ffffffffffffffffffffffffffffffffffffffff16021790555060208201518160010155604082015181600201556060820151816003015560808201518160040160006101000a81548160ff021916908315150217905550905050600281908060018154018082558091505060019003906000526020600020906005020160009091909190915060008201518160000160006101000a81548173ffffffffffffffffffffffffffffffffffffffff021916908373ffffffffffffffffffffffffffffffffffffffff16021790555060208201518160010155604082015181600201556060820151816003015560808201518160040160006101000a81548160ff02191690831515021790555050507fd99e4fad9ad6313b1feb588fa8e605e3a9873172f2024330c35dd2b4041a438633836040516108819291906117ba565b60405180910390a1505050565b6000600360008381526020019081526020016000206040518060a00160405290816000820160009054906101000a900473ffffffffffffffffffffffffffffffffffffffff1673ffffffffffffffffffffffffffffffffffffffff1673ffffffffffffffffffffffffffffffffffffffff1681526020016001820154815260200160028201548152602001600382015481526020016004820160009054906101000a900460ff16151515158152505090503373ffffffffffffffffffffffffffffffffffffffff16816000015173ffffffffffffffffffffffffffffffffffffffff16146109b1576040517f08c379a00000000000000000000000000000000000000000000000000000000081526004016109a89061177a565b60405180910390fd5b60036000838152602001908152602001600020600080820160006101000a81549073ffffffffffffffffffffffffffffffffffffffff02191690556001820160009055600282016000905560038201600090556004820160006101000a81549060ff0219169055505060006002826040015181548110610a5a577f4e487b7100000000000000000000000000000000000000000000000000000000600052603260045260246000fd5b906000526020600020906005020160040160006101000a81548160ff0219169083151502179055507fd99e4fad9ad6313b1feb588fa8e605e3a9873172f2024330c35dd2b4041a43863383604051610ab3929190611872565b60405180910390a15050565b6000600360008381526020019081526020016000206040518060a00160405290816000820160009054906101000a900473ffffffffffffffffffffffffffffffffffffffff1673ffffffffffffffffffffffffffffffffffffffff1673ffffffffffffffffffffffffffffffffffffffff1681526020016001820154815260200160028201548152602001600382015481526020016004820160009054906101000a900460ff161515151581525050905080602001513414610bb6576040517f08c379a0000000000000000000000000000000000000000000000000000000008152600401610bad906118ae565b60405180910390fd5b600115156003600084815260200190815260200160002060040160009054906101000a900460ff16151514610c20576040517f08c379a0000000000000000000000000000000000000000000000000000000008152600401610c17906118ce565b60405180910390fd5b60036000838152602001908152602001600020600080820160006101000a81549073ffffffffffffffffffffffffffffffffffffffff02191690556001820160009055600282016000905560038201600090556004820160006101000a81549060ff0219169055505060006002826040015181548110610cc9577f4e487b7100000000000000000000000000000000000000000000000000000000600052603260045260246000fd5b906000526020600020906005020160040160006101000a81548160ff021916908315150217905550600081602001511115610d4e57806000015173ffffffffffffffffffffffffffffffffffffffff166108fc82602001519081150290604051600060405180830381858888f19350505050158015610d4c573d6000803e3d6000fd5b505b600160009054906101000a900473ffffffffffffffffffffffffffffffffffffffff1673ffffffffffffffffffffffffffffffffffffffff166323b872dd826000015133856040518463ffffffff1660e01b8152600401610db193929190611685565b600060405180830381600087803b158015610dcb57600080fd5b505af1158015610ddf573d6000803e3d6000fd5b505050507fd99e4fad9ad6313b1feb588fa8e605e3a9873172f2024330c35dd2b4041a43863383604051610e149291906117f6565b60405180910390a15050565b610e28610ea4565b600073ffffffffffffffffffffffffffffffffffffffff168173ffffffffffffffffffffffffffffffffffffffff161415610e98576040517f08c379a0000000000000000000000000000000000000000000000000000000008152600401610e8f9061175a565b60405180910390fd5b610ea181610f22565b50565b610eac6110c9565b73ffffffffffffffffffffffffffffffffffffffff16610eca6104f0565b73ffffffffffffffffffffffffffffffffffffffff1614610f20576040517f08c379a0000000000000000000000000000000000000000000000000000000008152600401610f1790611852565b60405180910390fd5b565b60008060009054906101000a900473ffffffffffffffffffffffffffffffffffffffff169050816000806101000a81548173ffffffffffffffffffffffffffffffffffffffff021916908373ffffffffffffffffffffffffffffffffffffffff1602179055508173ffffffffffffffffffffffffffffffffffffffff168173ffffffffffffffffffffffffffffffffffffffff167f8be0079c531659141344cd1fd0a4f28419497f9722a3daafe3b4186f6b6457e060405160405180910390a35050565b60008273ffffffffffffffffffffffffffffffffffffffff16600160009054906101000a900473ffffffffffffffffffffffffffffffffffffffff1673ffffffffffffffffffffffffffffffffffffffff16636352211e846040518263ffffffff1660e01b815260040161105a919061190e565b60206040518083038186803b15801561107257600080fd5b505afa158015611086573d6000803e3d6000fd5b505050506040513d601f19601f820116820180604052508101906110aa919061114e565b73ffffffffffffffffffffffffffffffffffffffff1614905092915050565b600033905090565b6000813590506110e081611a69565b92915050565b6000815190506110f581611a69565b92915050565b60008151905061110a81611a80565b92915050565b60008135905061111f81611a97565b92915050565b60006020828403121561113757600080fd5b6000611145848285016110d1565b91505092915050565b60006020828403121561116057600080fd5b600061116e848285016110e6565b91505092915050565b60006020828403121561118957600080fd5b6000611197848285016110fb565b91505092915050565b6000602082840312156111b257600080fd5b60006111c084828501611110565b91505092915050565b600080604083850312156111dc57600080fd5b60006111ea85828601611110565b92505060206111fb85828601611110565b9150509250929050565b6000611211838361164c565b60208301905092915050565b611226816119bb565b82525050565b61123581611973565b82525050565b600061124682611939565b6112508185611951565b935061125b83611929565b8060005b8381101561128c5781516112738882611205565b975061127e83611944565b92505060018101905061125f565b5085935050505092915050565b6112a281611985565b82525050565b60006112b5602683611962565b91507f4f776e61626c653a206e6577206f776e657220697320746865207a65726f206160008301527f64647265737300000000000000000000000000000000000000000000000000006020830152604082019050919050565b600061131b602583611962565b91507f596f7520617265204e4f54207468652073656c6c6572206f662074686174206b60008301527f69747479210000000000000000000000000000000000000000000000000000006020830152604082019050919050565b6000611381602383611962565b91507f596f752063616e27742073656c207477697365207468652073616d65206f666660008301527f65722100000000000000000000000000000000000000000000000000000000006020830152604082019050919050565b60006113e7600c83611962565b91507f437265617465206f6666657200000000000000000000000000000000000000006000830152602082019050919050565b6000611427600383611962565b91507f42757900000000000000000000000000000000000000000000000000000000006000830152602082019050919050565b6000611467602483611962565b91507f596f7520617265204e4f5420746865206f776e6572206f662074686174206b6960008301527f74747921000000000000000000000000000000000000000000000000000000006020830152604082019050919050565b60006114cd602083611962565b91507f4f776e61626c653a2063616c6c6572206973206e6f7420746865206f776e65726000830152602082019050919050565b600061150d600c83611962565b91507f52656d6f7665206f6666657200000000000000000000000000000000000000006000830152602082019050919050565b600061154d601083611962565b91507f496e636f727265637420707269636521000000000000000000000000000000006000830152602082019050919050565b600061158d601883611962565b91507f4e6f20616374697665206f666665722070726573656e742100000000000000006000830152602082019050919050565b60006115cd604283611962565b91507f436f6e7472616374206e6565647320746f20626520617070726f76656420746f60008301527f207472616e7366657220746865206b6974747920696e2074686520667574757260208301527f65210000000000000000000000000000000000000000000000000000000000006040830152606082019050919050565b611655816119b1565b82525050565b611664816119b1565b82525050565b600060208201905061167f600083018461122c565b92915050565b600060608201905061169a600083018661121d565b6116a7602083018561122c565b6116b4604083018461165b565b949350505050565b60006040820190506116d1600083018561122c565b6116de602083018461122c565b9392505050565b600060a0820190506116fa600083018861122c565b611707602083018761165b565b611714604083018661165b565b611721606083018561165b565b61172e6080830184611299565b9695505050505050565b60006020820190508181036000830152611752818461123b565b905092915050565b60006020820190508181036000830152611773816112a8565b9050919050565b600060208201905081810360008301526117938161130e565b9050919050565b600060208201905081810360008301526117b381611374565b9050919050565b600060608201905081810360008301526117d3816113da565b90506117e2602083018561122c565b6117ef604083018461165b565b9392505050565b6000606082019050818103600083015261180f8161141a565b905061181e602083018561122c565b61182b604083018461165b565b9392505050565b6000602082019050818103600083015261184b8161145a565b9050919050565b6000602082019050818103600083015261186b816114c0565b9050919050565b6000606082019050818103600083015261188b81611500565b905061189a602083018561122c565b6118a7604083018461165b565b9392505050565b600060208201905081810360008301526118c781611540565b9050919050565b600060208201905081810360008301526118e781611580565b9050919050565b60006020820190508181036000830152611907816115c0565b9050919050565b6000602082019050611923600083018461165b565b92915050565b6000819050602082019050919050565b600081519050919050565b6000602082019050919050565b600082825260208201905092915050565b600082825260208201905092915050565b600061197e82611991565b9050919050565b60008115159050919050565b600073ffffffffffffffffffffffffffffffffffffffff82169050919050565b6000819050919050565b60006119c6826119cd565b9050919050565b60006119d8826119df565b9050919050565b60006119ea82611991565b9050919050565b60006119fc826119b1565b91507fffffffffffffffffffffffffffffffffffffffffffffffffffffffffffffffff821415611a2f57611a2e611a3a565b5b600182019050919050565b7f4e487b7100000000000000000000000000000000000000000000000000000000600052601160045260246000fd5b611a7281611973565b8114611a7d57600080fd5b50565b611a8981611985565b8114611a9457600080fd5b50565b611aa0816119b1565b8114611aab57600080fd5b5056fea2646970667358221220c39471f2bc1f3e600ff2c1a54dca05addcac20c571fd8fe6ad0a228e28cda26c64736f6c63430008000033",
  "immutableReferences": {},
  "source": "// SPDX-License-Identifier: MIT\r\npragma solidity ^0.8.0;\r\n\r\nimport \"./KittyContract.sol\";\r\nimport \"../node_modules/@openzeppelin/contracts/access/Ownable.sol\";\r\nimport \"./IKittyMarketplace.sol\";\r\n\r\ncontract KittyMarketplace is Ownable, IKittyMarketplace {\r\n    KittyContract private _kittyContract;\r\n\r\n    struct Offer {\r\n        address payable seller;\r\n        uint256 price;\r\n        uint256 index;\r\n        uint256 tokenId;\r\n        bool active;\r\n    }\r\n\r\n    Offer[] offers;\r\n\r\n    //event MarketTransaction(string TxType, address owner, uint256 tokenId);\r\n\r\n    mapping(uint256 => Offer) tokenIdToOffer;\r\n\r\n    function setKittyContract(address _kittyContractAddress)\r\n        public\r\n        override\r\n        onlyOwner\r\n    {\r\n        _kittyContract = KittyContract(_kittyContractAddress);\r\n    }\r\n\r\n    constructor(address _kittyContractAddress) {\r\n        setKittyContract(_kittyContractAddress);\r\n    }\r\n\r\n    function getOffer(uint256 _tokenId)\r\n        public\r\n        view\r\n        override\r\n        returns (\r\n            address sller,\r\n            uint256 price,\r\n            uint256 index,\r\n            uint256 tokenId,\r\n            bool active\r\n        )\r\n    {\r\n        Offer storage offer = tokenIdToOffer[_tokenId];\r\n        return (\r\n            offer.seller,\r\n            offer.price,\r\n            offer.index,\r\n            offer.tokenId,\r\n            offer.active\r\n        );\r\n    }\r\n\r\n    function getAllTokenOnSale()\r\n        public\r\n        view\r\n        override\r\n        returns (uint256[] memory listOfOffers)\r\n    {\r\n        uint256 totalOffers = offers.length;\r\n\r\n        if (totalOffers == 0) {\r\n            return new uint256[](0);\r\n        } else {\r\n            uint256[] memory result = new uint256[](totalOffers);\r\n\r\n            uint256 offerId;\r\n\r\n            for (offerId = 0; offerId < totalOffers; offerId++) {\r\n                if (offers[offerId].active == true) {\r\n                    result[offerId] = offers[offerId].tokenId;\r\n                }\r\n            }\r\n\r\n            return result;\r\n        }\r\n    }\r\n\r\n    function _ownsKitty(address _address, uint256 _tokenId)\r\n        internal\r\n        view\r\n        returns (bool)\r\n    {\r\n        return (_kittyContract.ownerOf(_tokenId) == _address);\r\n    }\r\n\r\n    function setOffer(uint256 _price, uint256 _tokenId) public override {\r\n        require(\r\n            _ownsKitty(msg.sender, _tokenId),\r\n            \"You are NOT the owner of that kitty!\"\r\n        );\r\n\r\n        require(\r\n            tokenIdToOffer[_tokenId].active == false,\r\n            \"You can't sel twise the same offer!\"\r\n        );\r\n\r\n        require(\r\n            _kittyContract.isApprovedForAll(msg.sender, address(this)),\r\n            \"Contract needs to be approved to transfer the kitty in the future!\"\r\n        );\r\n\r\n        Offer memory _offer = Offer({\r\n            seller: payable(msg.sender),\r\n            price: _price,\r\n            active: true,\r\n            tokenId: _tokenId,\r\n            index: offers.length\r\n        });\r\n\r\n        tokenIdToOffer[_tokenId] = _offer;\r\n        offers.push(_offer);\r\n\r\n        emit MarketTransaction(\"Create offer\", msg.sender, _tokenId);\r\n    }\r\n\r\n    function removeOffer(uint256 _tokenId) public override {\r\n        Offer memory offer = tokenIdToOffer[_tokenId];\r\n\r\n        require(\r\n            offer.seller == msg.sender,\r\n            \"You are NOT the seller of that kitty!\"\r\n        );\r\n\r\n        delete tokenIdToOffer[_tokenId];\r\n        offers[offer.index].active = false;\r\n\r\n        emit MarketTransaction(\"Remove offer\", msg.sender, _tokenId);\r\n    }\r\n\r\n    function buyKitty(uint256 _tokenId) public payable override {\r\n        Offer memory offer = tokenIdToOffer[_tokenId];\r\n\r\n        require(msg.value == offer.price, \"Incorrect price!\");\r\n\r\n        require(\r\n            tokenIdToOffer[_tokenId].active == true,\r\n            \"No active offer present!\"\r\n        );\r\n\r\n        //IMPORTANT: Delete the kitty from the mapping BEFORE paying out to preven reentry attack!\r\n        delete tokenIdToOffer[_tokenId];\r\n        offers[offer.index].active = false;\r\n\r\n        if (offer.price > 0) {\r\n            offer.seller.transfer(offer.price);\r\n        }\r\n\r\n        _kittyContract.transferFrom(offer.seller, msg.sender, _tokenId);\r\n\r\n        emit MarketTransaction(\"Buy\", msg.sender, _tokenId);\r\n    }\r\n}\r\n",
  "sourcePath": "/home/plamen/Documents/VSCode/Moralis/academy-kitties-template-master/contracts/KittyMarketplace.sol",
  "compiler": {
    "name": "solc",
    "version": "0.8.0+commit.c7dfd78e.Emscripten.clang"
  },
  "schemaVersion": "3.4.8",
  "updatedAt": "2022-08-06T16:01:48.384Z",
  "devdoc": {
    "kind": "dev",
    "methods": {
      "owner()": {
        "details": "Returns the address of the current owner."
      },
      "renounceOwnership()": {
        "details": "Leaves the contract without owner. It will not be possible to call `onlyOwner` functions anymore. Can only be called by the current owner. NOTE: Renouncing ownership will leave the contract without an owner, thereby removing any functionality that is only available to the owner."
      },
      "transferOwnership(address)": {
        "details": "Transfers ownership of the contract to a new account (`newOwner`). Can only be called by the current owner."
      }
    },
    "version": 1
  },
  "userdoc": {
    "kind": "user",
    "methods": {
      "buyKitty(uint256)": {
        "notice": "Executes the purchase of _tokenId. Sends the funds to the seller and transfers the token using transferFrom in Kittycontract. Emits the MarketTransaction event with txType \"Buy\". Requirement: The msg.value needs to equal the price of _tokenId Requirement: There must be an active offer for _tokenId"
      },
      "getAllTokenOnSale()": {
        "notice": "Get all tokenId's that are currently for sale. Returns an empty arror if none exist."
      },
      "getOffer(uint256)": {
        "notice": "Get the details about a offer for _tokenId. Throws an error if there is no active offer for _tokenId."
      },
      "removeOffer(uint256)": {
        "notice": "Removes an existing offer. Emits the MarketTransaction event with txType \"Remove offer\" Requirement: Only the seller of _tokenId can remove an offer."
      },
      "setKittyContract(address)": {
        "notice": "Set the current KittyContract address and initialize the instance of Kittycontract. Requirement: Only the contract owner can call."
      },
      "setOffer(uint256,uint256)": {
        "notice": "Creates a new offer for _tokenId for the price _price. Emits the MarketTransaction event with txType \"Create offer\" Requirement: Only the owner of _tokenId can create an offer. Requirement: There can only be one active offer for a token at a time. Requirement: Marketplace contract (this) needs to be an approved operator when the offer is created."
      }
    },
    "version": 1
  }
}